:100000000C94E2060C940A070C940A070C940A0755
:100010000C940A070C940A070C940A070C940A071C
:100020000C940A070C940A070C940A070C940A070C
:100030000C940A070C940A070C940A070C940A07FC
:100040000C942C180C940A070C940A070C940A07B9
:100050000C940A070C940A070C940A070C940A07DC
:100060000C9462140C940A07DB0B260CD10BD10BF9
:10007000980BCB0B980B980B980B980B980B980B35
:10008000980B980B980B980B980B980B980B980B58
:10009000980B980B980B980B980B980B980B980B48
:1000A000980B980B980B980B980B980B980B980B38
:1000B000960C960C0E15A914A914A914A914A91428
:1000C000A914A9141815A914A914A914A914A914D8
:1000D000A914A9141815A914A914A914A914A914C8
:1000E000A914A9142015A914A914A914A914A914B0
:1000F000A914A9143415A914A914A914A914A9148C
:10010000A914A9142015A914A914A914A914A9148F
:10011000A914A914D614A914A914A914A914A914CA
:10012000A914A914E314A914A914A914A914A914AD
:10013000A914A914CF14A914A914A914A914A914B1
:10014000A914A9145F15A914A914A914A914A91410
:10015000A914A914C314A914A914A914A914A9149D
:10016000A914A914EC14A914A914A914A914A91464
:10017000A914A9140515A914A914A914A914A9143A
:10018000A914A9140515A914A914A914A914A9142A
:10019000A914A9140515A914A914A914A914A9141A
:1001A000A914A9140515A914A914A914A914A9140A
:1001B000A914A914BA14A914A914A914A914A91446
:1001C000A914A914BF14A914A914A914A914A91431
:1001D000A914A914BA14A914A914A914A914A91426
:1001E000A914A914BF14A914A914A914A914A91411
:1001F000A914A9143F15A914A914A914A914A91480
:10020000A914A9148114A914A914A914A914A9142E
:10021000A914A9148114A914A914A914A914A9141E
:10022000A914A9149414A914A914A914A914A914FB
:10023000A914A9145915A914A914A914A914A91425
:10024000A914A914591500407A10F35A00A0724E4F
:1002500018090010A5D4E80000E87648170000E46B
:100260000B54020000CA9A3B000000E1F5050000B3
:1002700080969800000040420F000000A086010018
:100280000000102700000000E803000000006400E8
:10029000000000000A000000000001000000000053
:1002A0002C76D888DC674F0823DFC1DFAE59E1B177
:1002B000B796E5E3E453C63AE651997696E8E6C286
:1002C0008426EB898C9B62ED407C6FFCEFBC9C9F8D
:1002D00040F2BAA56FA5F490055A2AF75C936B6CAF
:1002E000F9676DC11BFCE0E40D47FEF520E6B500A3
:1002F000D0ED902E0300943577050080841E080011
:1003000000204E0A000000C80C333333330F986EC0
:1003100012831141EF8D2114893BE65516CFFEE67D
:10032000DB18D1844B381BF77C1D901DA4BBE42443
:10033000203284725E228100C9F124ECA1E53D27C0
:10034000205F010100000000000000000000005FCD
:100350005F000000000707000007070000227F7F02
:10036000227F7F22242E2A6B2A3A120046663018FA
:100370000C66620020765F493F765000000000075F
:100380000700000000001C3E6341000000004163C4
:100390003E1C000004151F0E1F1504000008083E37
:1003A0003E08080000004070300000000008080807
:1003B00008080800000000606000000000603018BD
:1003C0000C0603003E7F4141417F3E000040427FDA
:1003D0007F40400062735949494F460022634949B2
:1003E000497F36001C1E13117F7F1000276745458B
:1003F000457D39003E7F4949497B3200030301793D
:100400007D070300367F4949497F3600266F4949F9
:10041000497F3E00000000363600000000004076B4
:10042000360000000000081C36634100001414145C
:100430001414140000004163361C08000002015926
:10044000590F06003C4299A5A5B9221C7E7F1111C7
:10045000117F7E007F7F4949497F36003E7F4141C1
:10046000416322007F7F4141417F3E007F7F4949B8
:10047000494941007F7F0909090101003E7F41414F
:10048000497B3A007F7F0808087F7F000000007FDB
:100490007F00000020604040407F3F007F7F081CBD
:1004A000366341007F7F4040404040007F7F060C24
:1004B000067F7F007F7F060C187F7F003E7F4141D3
:1004C000417F3E007F7F1111111F0E003E7F414191
:1004D00041FFBE007F7F1111117F6E00266F4949D9
:1004E000497B32000001017F7F0101003F7F4040D6
:1004F000407F3F000F1F3060301F0F007F7F301C98
:10050000307F7F0063771C081C77630000070F783B
:10051000780F07006171795D4F47430000007F7FCE
:10052000414100000003060C18306000000041410A
:100530007F7F000000000C0603060C008080808096
:100540008080808000205F0101000000000000002A
:10055000000000005E000000000000060000060031
:100560000000247E24247E240000246B2A2A6B129F
:1005700000004626100864620000344A4A542050A5
:100580000000000000060000000000003C420000E7
:1005900000000000423C000000002A1C3E1C2A0013
:1005A000000008083E08080000000040300000007D
:1005B00000000808080808080000000040000000CB
:1005C000000040201008040200003C62524A463CF1
:1005D000000040447E404000000064525252524CA1
:1005E000000024424A4A4A340000382422227E2055
:1005F00000002E4A4A4A4A3200003C4A4A4A4A30DF
:100600000000020262120A060000344A4A4A4A34D2
:1006100000000C525252523C000000002400000026
:100620000000004024000000000000081422000028
:100630000000141414141414000000002214080004
:1006400000000402520A0400000018245A5A241818
:1006500000007C121212127C00007E4A4A4A4A3480
:1006600000003C424242422400007E424242423C60
:1006700000007E4A4A4A424200007E0A0A0A0202FA
:1006800000003C424252523400007E080808087EB6
:10069000000000427E420000000020404040403EFA
:1006A00000007E080808146200007E404040404080
:1006B00000007E040808047E00007E040810207EEE
:1006C00000003C424242423C00007E121212120CD8
:1006D00000003C425262423C00007E121212324C38
:1006E0000000244A4A4A4A30000002027E02020008
:1006F00000003E404040403E00001E204040201E82
:1007000000007E201010207E000042241818244291
:10071000000002047804020000004262524A46428D
:100720000000007E42420000000002040810204049
:100730000000000042427E000000000004020400AD
:1007400000808080808080808000207E0102000008
:100750000000000000000000000000000000000099
:1007600000FCFC0000000000000D0D000000003C3B
:100770003C003C3C0000000000000000000060F86D
:10078000F860F8F86000030F0F030F0F030070F814
:10079000C8FC88981000040C081F090F07001C14DF
:1007A0009CE0701C0C000C0E03010E0A0E00C0E051
:1007B0002020E0C00000060F09090F0E0A0000000B
:1007C000003C3C000000000000000000000000C0F1
:1007D000F0380C0400000001070E1810000000049F
:1007E0000C38F0C000000010180E07010000404057
:1007F000C0F0C0404000000603010306000000C036
:10080000C0F0F0C0C00000000003030000000000C2
:100810000000000000000000111F0F070000008012
:100820008080808080000000000000000000000048
:100830000000000000000000040E0E040000000094
:1008400080C060381C000E07010000000000F0F8B6
:100850000C040CF8F00003070C080C070300001050
:1008600018FCFC0000000008080F0F080800181C06
:100870000484C47C38000C0E0B090808080004042A
:10088000446474DC8C00040C0808080F0700C0E006
:100890003018FCFC0000010101010F0F01007C7CFD
:1008A000642424E4C400040C0808080F0700F0F8CE
:1008B000CC4444C48000070F0C08080F0700040450
:1008C00004C4E43C1C0000000F0F00000000B8FC52
:1008D000444444FCB800070F0808080F070078FCE0
:1008E0008484CCFCF800000808080C070300000012
:1008F0002070702000000000040E0E0400000000B4
:100900002070702000000000111F0F070000008001
:10091000C0603018080000000103060C0800004009
:100920004040404040000002020202020200000873
:10093000183060C0800000080C0603010000181C7D
:100940000484C47C38000000000D0D000000F0F8A5
:1009500018D87878F000070F0C0B0A0A0B00F0F893
:100960008C8C8CF8F0000F0F0000000F0F0004FCBF
:10097000FC4444FCB800080F0F08080F0700F8FCFF
:100980000C04041C1800070F0C08080E060004FCD9
:10099000FC0404FCF800080F0F08080F0700FCFC1B
:1009A0004444440404000F0F080808080800FCFC35
:1009B0004444440404000F0F000000000000F8FC51
:1009C0000404041C1800070F0808090F0700FCFCAA
:1009D000404040FCFC000F0F0000000F0F00000023
:1009E00004FCFC0400000000080F0F0800000000D9
:1009F000000004FCFC00060E0808080F0700FCFCC1
:100A0000C0E0301C0C000F0F0001030E0C00FCFCBA
:100A10000000000000000F0F080808080C00FCFC94
:100A2000306030FCFC000F0F0000000F0F00FCFCDA
:100A300070C080FCFC000F0F0000030F0F00F8FCDB
:100A4000040404FCF800070F0808080F0700FCFC6A
:100A5000848484FC78000F0F000000000000F8FC84
:100A6000040404FCF800070F080C0C1F1700FCFC22
:100A7000C4C4C47C38000F0F0000030F0C00387C86
:100A8000444444DC9800060E0808080F07000004E0
:100A900004FCFC0404000000000F0F000000FCFC3C
:100AA000000000FCFC00070F0808080F07003CFCD2
:100AB000800080FC3C000001070E07010000FCFCE8
:100AC000000000FCFC00070F0C070C0F07000C3C9B
:100AD000F0C0F03C0C000C0F0300030F0C00001CD6
:100AE0007CE0E07C1C000000000F0F00000004040C
:100AF00084C4643C1C000E0F09080808080000FCB0
:100B0000FC0404040000001F1F10101000001C381B
:100B100060C0800000000000000001070E0000041B
:100B20000404FCFC0000001010101F1F0000203007
:100B3000180C183020000000000000000000000029
:100B40000000000000001010101010101000000035
:100B5000040C18100000000000000000000000A0BD
:100B6000A0A0A0E0C000070F0808040F0F00FCFCC5
:100B7000402020E0C0000F0F0408080F0700C0E06D
:100B8000602020604000070F0C08080C0400C0E043
:100B9000202040FCFC00070F0808040F0F00C0E0F5
:100BA000202020E0C000070F0909090D050080F88A
:100BB000FC84848C0800000F0F0000000000C0E0DF
:100BC0002020E0E02000153F2E2E2B391000FCFCE9
:100BD000402020E0C0000F0F0000000F0F000000B9
:100BE00040D8D80000000000080F0F0800000000E7
:100BF000000040D8D80018382020203F1F00FCFCFF
:100C000080C0602000000F0F0103060C08000000E8
:100C100004FCFC0000000000080F0F080000C0E00A
:100C200060C060E0C0000F0F0001000F0F00E0E0A7
:100C3000402020E0C0000F0F0000000F0F00C0E0B8
:100C4000202020E0C000070F0808080F0700E0E0A0
:100C5000402020E0C0003F3F0408080F0700C0E02C
:100C6000202040E0E000070F0808043F3F00E0E0DC
:100C70004020206040000F0F00000000000040E016
:100C8000A02020604000040C09090B0E040040FC69
:100C9000FC404040000000070F08080C0400E0E0A2
:100CA000000000E0E000070F0808040F0F00E0E07C
:100CB000000000E0E00001070E080E070100E0E080
:100CC000000000E0E000070F0C070C0F070060E0D9
:100CD000800080E060000C0E0301030E0C00E0E0D9
:100CE000000000E0E00013372424223F1F002020F2
:100CF00020A0E06020000C0E0B090808080000800E
:100D0000B8FC4404040000000E1F11101000000085
:100D100000FCFC0000000000000F0F0000000004B9
:100D20000444FCB88000001010111F0E00003018A1
:100D300018383030180000000000000000000000EB
:100D40000009000302000004050800000000000084
:100D50000000000000005EBCE2613FDD83C29C7EBB
:100D600020A3FD1F41009D23BE46DB65F88C11AF1B
:100D700032CA57E97400000000250028002B00004B
:100D8000000000240027002A0000000000230026A5
:100D90000029000404040404040404020202020200
:100DA00002030303030303020203010204081020E9
:100DB0004080010204081020010204081020408035
:100DC00040000B2C11241FBECFEFD8E0DEBFCDBFFB
:100DD00012E0A0E0B1E0E0E7F3E602C005900D927A
:100DE000AA32B107D9F723E0AAE2B2E001C01D920E
:100DF000A339B207E1F716E0C2EED6E004C02197AE
:100E0000FE010E94932FC13ED107C9F70E947618B8
:100E10000C94B6310C940000CF92DF92EF92FF92C7
:100E20000F931F93CF93DF934115510509F16A0189
:100E30008C017B01C0E0D0E004C02196CC16DD0619
:100E400069F0D7016D917D01D801ED91FC91019080
:100E5000F081E02DC8010995892B79F7CE01DF914A
:100E6000CF911F910F91FF90EF90DF90CF90089559
:100E7000C0E0D0E0F3CF80E00895DC011A96ED9158
:100E8000FC911B9720E030E00994DC011696ED916F
:100E9000FC91179720E030E040E069E10994DC0123
:100EA0001696ED91FC91179720E030E040E068E164
:100EB00009949A01DC011696ED91FC911797462F43
:100EC00067E10994EF92FF920F931F93CF93DF9303
:100ED0001F92CDB7DEB77C018B01D8016C916731D1
:100EE00099F06831F0F06A31A8F16E3F59F5F801D8
:100EF0004181498369E2C7010E943D070E5F1F4F90
:100F0000D8016C91673169F7F80181818983AE015D
:100F10004F5F5F4F61E0C7010E9459070E5F1F4F8F
:100F2000DCCF653178F0F80141814983D70116960D
:100F3000ED91FC91179720E030E0C70109950E5F15
:100F40001F4FCBCF0F90DF91CF911F910F91FF904B
:100F5000EF9008950F5F1F4FD7011696ED91FC910A
:100F6000179720E030E040E0C7010995B6CF462F43
:100F7000DC011696ED91FC91179720E030E066E1D8
:100F80000994462FDC011696ED91FC91179720E00D
:100F900030E065E10994EF92FF920F931F93CF9396
:100FA000DF93EC01142F79016D3009F4B1C008F41E
:100FB00090C06E30C9F16F3009F044C00E944F07F5
:100FC000F7010381000F000F000F8C89080F60E408
:100FD000CE010E94C107602F62956F706061CE01E3
:100FE0000E94C107602F6F70CE010E94B707F70102
:100FF0006481606BCE010E94B707F7014081518187
:101000006281660F660F660FCE010E94590711506C
:10101000A1F7CE010E94450781E0DF91CF911F919A
:101020000F91FF90EF9008950E944F0761E8CE0165
:101030000E94C107612FCE010E94B707CE010E9416
:101040004507EACF693009F456C06A3009F04BC051
:10105000EA85FB8520E030E040E068E2CE010995BA
:10106000EE81FF8120E030E040E064E1CE010995AF
:1010700041E06BE4CE010E943D07E881F9814481A3
:1010800069E2CE010E943D0740E06BE4CE010E9480
:101090003D07E881F981448169E2CE010E943D0764
:1010A00041E06BE4CE010E943D07E881F981458172
:1010B00069E2CE010E943D0760E271E0CE010E942C
:1010C000620781E0DF91CF911F910F91FF90EF9028
:1010D00008956B3009F0B6CF41112EC06BE171E07D
:1010E0000E94620799CF80E0DF91CF911F910F910D
:1010F000FF90EF90089585E591E0998388831C8A9D
:1011000081E0DF91CF911F910F91FF90EF900895B3
:10111000411109C06FE071E00E946207E881F98126
:1011200082898C8B79CF68E071E00E946207E88148
:10113000F98183898C8B70CF66E171E00E94620730
:101140006BCF611104C06FEF7FEFCB0108956A3060
:10115000D1F3FC01218D21110CC06C3F28F125E059
:10116000218F617070E0FC01738B628B6EEF7FEFFB
:10117000ECCF4FEF420FFC01418F228933890024CD
:10118000369527950794369527950794322F202D6D
:101190006F73F901E62BBF01FC01738B628B442353
:1011A000A1F26EEF7FEFD1CF683F28F024E0FC0181
:1011B000218F6370D7CF603F28F023E0FC01218F9F
:1011C0006770D0CF603E28F022E0FC01218F6F7065
:1011D000C9CF603C28F021E0FC01218F6F71C2CFA4
:1011E00070E0B3CF611103C08FEF9FEF08956A30B5
:1011F000D9F3862F90E00895CF93DF93EC01683107
:1012000009F4F6C0A8F5643109F485C06731A1F589
:1012100080919103882309F411C150E041155105D3
:1012200019F180919003F901420F531F21E030E042
:1012300008C030930103209300033196E417F507AB
:1012400099F08032B0F7908180918F03A82FB0E0A1
:10125000A159BC4F9C938F5F80938F038093900321
:101260003196E417F50769F781E0DF91CF91089592
:10127000693131F06032C1F380E0DF91CF910895A0
:10128000409190034132E8F58091B7028111FCCF83
:10129000C091700282E08093B70281E08093B8022F
:1012A0008FEF8093B5021092DA024093D902442363
:1012B00051F0415050E04F5F5F4F6FE673E089EBB4
:1012C00092E00E94A6311092DB028091DB02CC0FEB
:1012D000C82BC093DB028091B602813009F4EDC0C7
:1012E00085EE8093BC008091B7028230E1F380915B
:1012F000B5028F3F31F08091B502803211F08091BC
:10130000B50210928F03109290031092910381E026
:10131000DF91CF9108958C859D85AE85BF85892B02
:101320008A2B8B2B71F4E881F981A585B0E020EA46
:1013300036E841E050E00E94992F6C877D878E87C8
:101340009F87109293021092920210928F03109234
:1013500090031092B70281E08093B8021092B60217
:10136000E0E5FDE08491ECEBFDE09491E5EAFDE041
:10137000E491EE2379F0811190C0F0E0EE0FFF1FB1
:10138000EB58F24FA591B4918FB7F894EC91E92BFB
:10139000EC938FBFE1E5FDE08491EDEBFDE09491EE
:1013A000E6EAFDE0E491EE2379F0811163C0F0E01C
:1013B000EE0FFF1FEB58F24FA591B4918FB7F89441
:1013C000EC91E92BEC938FBF8091B9008E7F8093D5
:1013D000B9008091B9008D7F8093B90080E280933D
:1013E000B80085E48093BC0081E0DF91CF9108953F
:1013F0002C853D854E855F8560E072E18AE790E04F
:101400000E94712FDA01C9014097A109B109B6956F
:10141000A795979587958093B8008E8990E09595CC
:10142000879591E0909391038093700210928F03BF
:101430001092900381E0DF91CF910895413208F03E
:1014400013CF8091B702843009F00ECF4093B402DD
:10145000442309F409CFF901A4E9B2E08FEF840F26
:1014600090E00196820F931F21912D93E817F907C1
:10147000D9F7FACE843009F462C0B0F1883009F4AB
:1014800058C0893009F44FC0853009F090CF809161
:1014900080008F7D809380008ACF843071F1D8F0F6
:1014A0008830D9F1893099F1853009F066CF809183
:1014B00080008F7D8093800060CF1092B602809173
:1014C000DB028093BB008091BC0083FDF8CF85ECEC
:1014D0008093BC0008CF8230C1F1833009F04DCF3A
:1014E00084B58F7D84BD49CF823069F0833009F0A7
:1014F0005ECF84B58F7D84BD5ACF809180008F7779
:10150000809380003ACF84B58F7784BD50CF80918F
:10151000B0008F7D8093B00030CF8091B0008F7786
:101520008093B0002ACF8091B0008F7D8093B0006F
:101530003ECF8091B0008F778093B00038CF8091FC
:1015400080008F778093800032CF84B58F7784BD01
:1015500014CF0E94A131CF93DF931F92CDB7DEB796
:101560006983BE016F5F7F4F0E9459140F90DF9116
:10157000CF910895EF92FF921F93CF93DF93EC01E9
:10158000162F7A01E885F98520E030E040E068E137
:10159000099560E4CE010E94AB0AE885F9859701C0
:1015A000412F67E1CE010995E885F98520E030E01B
:1015B00040E069E1CE01DF91CF911F91FF90EF9064
:1015C0000994EF92FF920F931F93CF937C01C42F46
:1015D0008901663109F47BC098F0683141F008F464
:1015E0005AC06931E1F58091710281117AC010927F
:1015F000710281E0CF911F910F91FF90EF900895BC
:101600006431A1F1653159F580917102882359F057
:10161000D7011896ED91FC91199720E030E040E059
:1016200069E1C7010995D7011896ED91FC911997C9
:1016300020E030E040E068E1C701099560E0C701C3
:101640000E94AB0A6C2FC7010E94AB0A81E0809315
:101650007102CF911F910F91FF90EF90089580E05C
:10166000CF911F910F91FF90EF900895FC01868913
:101670008F3F11F488E7868BD7011896ED91FC9186
:10168000199798014C2F64E1C701CF911F910F91D9
:10169000FF90EF90099480917102882341F02DC052
:1016A00068E1C7010E94BA0AC851085E1F4FA8012D
:1016B000C931B0F76C2FC7010E94BA0A10927102AB
:1016C00081E0CF911F910F91FF90EF900895642FCB
:1016D0000E94AB0A81E0CF911F910F91FF90EF9094
:1016E0000895D7011896ED91FC91199720E030E00C
:1016F00040E069E1C70109957ACFD7011896ED91CD
:10170000FC91199720E030E040E069E1C7010995BC
:10171000CECFCF92DF92EF92FF920F931F93CF9392
:10172000DF93C62ED12CF601B897E632F10578F199
:10173000603408F429C16F73FC01E60FF11D278D99
:101740002F3F09F42EC0603108F446C130E0F901A2
:10175000E25CF24F4491F901E655F24F5491F901E0
:10176000ED56F24FE491EE2369F041115BC1F0E0D8
:10177000EE0FFF1FE757F24FA591B4912C9125234F
:1017800031E009F430E0FC01328F81E00BC0EC5C09
:10179000FF4F0C94932F433020F486E090E00197A4
:1017A000F1F781E0DF91CF911F910F91FF90EF90C2
:1017B000DF90CF900895DC015F9680E01DC094918A
:1017C000F901ED56F24F2491222399F030E0220FD7
:1017D000331FF901E158F24FC591D491F901EB584B
:1017E000F24F259134912FB7F894E881E92BE883E3
:1017F0002FBF8F5F8631A9F22D912F3FD1F330E0BB
:10180000F901E655F24F8031D0F24491F901ED56DD
:10181000F24F2491222369F330E0220F331FF901A4
:10182000E158F24F65917491F901EB58F24FC5916F
:10183000D4912FB7F894FB019081342F30959323E6
:101840009083E881E42BE8832FBFD3CF042F10E0EF
:1018500020E030E09FB7F89440916B0350916C0307
:1018600060916D0370916E0386B5A89B06C08F3F93
:1018700021F04F5F5F4F6F4F7F4F9FBF762F652FD8
:10188000542F4427480F511D611D711D440F551FD2
:10189000661F771F440F551F661F771F440F551F84
:1018A000661F771F011511052105310509F479CF50
:1018B000FFB7F89480916B0390916C03A0916D0336
:1018C000B0916E03E6B5A89B05C0EF3F19F00196F5
:1018D000A11DB11DFFBFBA2FA92F982F88278E0FEA
:1018E000911DA11DB11D880F991FAA1FBB1F880F35
:1018F000991FAA1FBB1F880F991FAA1FBB1F841BFC
:10190000950BA60BB70B883E9340A105B10580F25D
:10191000015011092109310948515C4F6F4F7F4F28
:10192000011511052105310519F63BCF6F73DC0157
:10193000A60FB11D5F968C915F97411127C0282F8C
:1019400030E0F901E655F24F9491F901ED56F24F6E
:1019500024912223A9F030E0220F331FF901E1582E
:10196000F24FC591D491F901EB58F24F2591349182
:101970008FB7F894E881E92BE8838FBF5F968C914D
:101980000E940A1481E00ECF80E00CCF90E0FC01B1
:10199000E655F24F2491FC01ED56F24F84918823D5
:1019A00009F4FFCE90E0880F991FFC01E158F24F37
:1019B000C591D491FC01EB58F24FA591B4919FB71A
:1019C000F8948881322F309583238883EC91E22B21
:1019D000EC939FBF81E0E6CE822F90E0FC01E25CB9
:1019E000F24F2491FC01E655F24F3491FC01ED5683
:1019F000F24F8491882309F4D4CE211126C0E82F18
:101A0000F0E0EE0FFF1FEB58F24FA591B4919FB796
:101A1000F8948C91411116C0309583238C939FBF0D
:101A200081E0C0CE443051F100F14830B9F1493085
:101A300079F1453009F09BCE209180002F7D2093D5
:101A4000800095CE382B3C93EACF2430B1F160F181
:101A5000283009F442C02930D1F1253081F6909127
:101A600080009F7D90938000CACF423069F0433060
:101A700009F07DCE24B52F7D24BD79CE2091800044
:101A80002F772093800073CE24B52F7724BD6FCE9F
:101A90002091B0002F7D2093B00069CE2091B0003E
:101AA0002F772093B00063CE223069F0233009F005
:101AB000A6CF94B59F7D94BDA2CF909180009F77D3
:101AC000909380009CCF94B59F7794BD98CF9091D0
:101AD000B0009F7D9093B00092CF9091B0009F771F
:101AE0009093B0008CCF0F931F93CF93DF93EC01B3
:101AF000D90128813981F901149131968491319667
:101B000054913196E491411718F0841708F041C0C0
:101B100088E0FD0111928A95E9F7FB018081882315
:101B200099F18C9180958C9311968C911197809559
:101B300011968C93119712968C911297809512960C
:101B40008C93129713968C911397809513968C9380
:101B5000139714968C911497809514968C931497E0
:101B600015968C911597809515968C9315971696CA
:101B70008C911697809516968C93169717968C9144
:101B80001797809517968C93DF91CF911F910F91A6
:101B90000895842F90E0811B91095E9FE02D112410
:101BA000E89FA001E99F500D1124400F511D440FE3
:101BB000551F440F551F440F551FFA013496E20F6D
:101BC000F31F24912C93CA010596E881F981E80F4F
:101BD000F91FE4911196EC9311970196E881F98130
:101BE000E80FF91FE4911296EC9312970196E881A1
:101BF000F981E80FF91FE4911396EC93139701967E
:101C0000E881F981E80FF91FE4911496EC93149799
:101C10000196E881F981E80FF91FE4911596EC939C
:101C200015970196E881F981E80FF91FE49116965E
:101C3000EC931697455F5F4FE881F981E40FF51F3C
:101C4000E4911796EC93179768CF2F923F924F929B
:101C50005F926F927F928F929F92AF92BF92CF923C
:101C6000DF92EF92FF920F931F93CF93DF93CDB745
:101C7000DEB762970FB6F894DEBF0FBECDBFDC01B2
:101C80006A3009F47AC054968D919C915597FC0165
:101C9000329624912A8BDA964C90DA97D9962C9129
:101CA000D9972F875D0124E0A20EB11C24913196B3
:101CB00084912F84220E840D888B4D0184E1880E3F
:101CC000911C3D0199E1690E711C8F858F5F28166B
:101CD00008F450C0298B362E6D011E86CE01019668
:101CE0007C015E841F85052D9701432DB301C4013E
:101CF0000E94730D1C874D8691E09B87FA86E986CA
:101D0000D6011896ED91FC9119979E01275F3F4FE0
:101D100041E06FE0C501099553941F5F121518F358
:101D20004394B989EE85BE0FBE87F8894F16C8F275
:101D3000D601D9968C91BA898B0FF60181AF81E0DB
:101D400090E062960FB6F894DEBF0FBECDBFDF9174
:101D5000CF911F910F91FF90EF90DF90CF90BF90A8
:101D6000AF909F908F907F906F905F904F903F903B
:101D70002F900895E1E0E98BAECF5496ED91FC9160
:101D800055973396E491DA968C91DA97E80FDA96C4
:101D9000EC93DA97D9961C92D2CF2F923F924F9222
:101DA0005F926F927F928F929F92AF92BF92CF92EB
:101DB000DF92EF92FF920F931F93CF93DF93CDB7F4
:101DC000DEB769970FB6F894DEBF0FBECDBF7C01BA
:101DD0005C8B4B8B452B09F4B7C06F8B788F1E8AB9
:101DE0001D8A4C0124E0820E911C2C0134E1430E2B
:101DF000511C1C0189E1280E311CDE0111966D0178
:101E000077247394D701ED91FC910190F081E02D3E
:101E1000AF89B88D6D90B88FAF8BBEE0E532FB0710
:101E200009F08EC0EAE06E1609F474C0F7018489E7
:101E30009589FC0132962491298FD701DA96AC90CE
:101E4000DA97D996BC91B88B249131968491B20FD0
:101E5000BE878A0D898B88898F5FB81708F46DC09B
:101E60002A8B1F86BF8418890B2D9601462DB10140
:101E7000C2010E94730D1C87AD867B86DA86C986F7
:101E8000D7011896ED91FC9119979E01275F3F4F5E
:101E900041E06FE0C4010995B3941F5FBE851B1735
:101EA00018F3A394EA89FF85EF0FEF872989A2161B
:101EB000C8F2D701D9968C91B98D8B0FF70181AFFC
:101EC00081E090E02D893E89280F391F3E8B2D8BB4
:101ED0008B899C8901979C8B8B8B892B09F092CFE6
:101EE000C90169960FB6F894DEBF0FBECDBFDF9172
:101EF000CF911F910F91FF90EF90DF90CF90BF9007
:101F0000AF909F908F907F906F905F904F903F9099
:101F10002F900895D7015496ED91FC9155973396E3
:101F2000E491DA968C91DA97E80FDA96EC93DA97E7
:101F3000D9961C9281E090E0C5CFE1E0EA8B91CF89
:101F4000662DC7010995BECF1E8A1D8A8D899E897F
:101F5000C8CF089581E090E03091930220919202E1
:101F6000321710F480E090E09195819591090895E1
:101F70004F925F927F928F929F92AF92BF92CF9239
:101F8000DF92EF92FF920F931F93CF93DF93CDB722
:101F9000DEB729970FB6F894DEBF0FBECDBFE09134
:101FA0001003F091110340810180F281E02DF8943B
:101FB0002181542F50952523218378943CE702C03A
:101FC0003150F9F020812423D9F3F894228125237C
:101FD00022832181242B21837894ACEBB3E01197E9
:101FE000F1F7F894218152235183A8E8B0E01197CA
:101FF000F1F720817894E0E3F3E03197F1F74223A1
:10200000B9F080E029960FB6F894DEBF0FBECDBFC1
:10201000DF91CF911F910F91FF90EF90DF90CF90C4
:10202000BF90AF909F908F907F905F904F9008955A
:102030007C01009110031091110365E5C8010E9415
:1020400081166701470188E0880E911C6EE770E0F9
:1020500046E050E080E1E82EF12C9AE6492E512C22
:10206000D6019D916D0128E030E081E01CC0F801AF
:1020700070800180F281E02DF894B280A72CA094AA
:10208000BA20B282B180B728B182D7011197F1F797
:10209000B280B728B2827894F2013197F1F7880FB5
:1020A0002150310901F1E92FE82309F7D8017C908B
:1020B0001196ED91FC911297F894B280A72CA09400
:1020C000BA20B282B180B728B182DB011197F1F753
:1020D000B280B728B2827894FA013197F1F7880F6D
:1020E0002150310901F7F894D8011196ED91FC9136
:1020F000129791818C918095892381831196ED911E
:10210000FC91129792818C91809589238283789497
:10211000C814D90409F0A4CF6EEB809110039091FC
:1021200011030E9481168E010F5F1F4F7E01BAE0DE
:10213000EB0EF11C62E070E040E150E026E630E09A
:10214000E0911003F0911103B080A181B281F89465
:1021500011968C9111978B2911968C931197129649
:10216000DC901297AB2CA094DA201296DC92129796
:10217000CB010197F1F71196DC9011978A2D8D21F3
:1021800011968C931197CA010197F1F78C9178946D
:10219000D9011197F1F79B2D9823AA24A3949111AB
:1021A00001C0A12CB080A181B281F89411969C91BC
:1021B00011979B2911969C9311971296DC90129778
:1021C0009B2C9094D9201296DC921297CB01019708
:1021D000F1F71196DC901197992D9D2111969C9302
:1021E0001197CA010197F1F79C917894D901119741
:1021F000F1F79B2119F09A2D9260A92EB080A18150
:10220000B281F89411969C9111979B2911969C93F9
:1022100011971296DC9012979B2C9094D9201296CD
:10222000DC921297CB010197F1F71196DC90119790
:10223000992D9D2111969C931197CA010197F1F751
:102240009C917894D9011197F1F79B2119F09A2D5F
:102250009460A92EB080A181B281F89411969C91CE
:1022600011979B2911969C9311971296DC901297C7
:102270009B2C9094D9201296DC921297CB01019757
:10228000F1F71196DC901197992D9D2111969C9351
:102290001197CA010197F1F79C917894D901119790
:1022A000F1F79B2119F09A2D9860A92EB080A18199
:1022B000B281F89411969C9111979B2911969C9349
:1022C00011971296DC9012979B2C9094D92012961D
:1022D000DC921297CB010197F1F71196DC901197E0
:1022E000992D9D2111969C931197CA010197F1F7A1
:1022F0009C917894D9011197F1F79B2119F09A2DAF
:102300009061A92EB080A181B281F89411969C9120
:1023100011979B2911969C9311971296DC90129716
:102320009B2C9094D9201296DC921297CB010197A6
:10233000F1F71196DC901197992D9D2111969C93A0
:102340001197CA010197F1F79C917894D9011197DF
:10235000F1F79B2119F09A2D9062A92EB080A181EE
:10236000B281F89411969C9111979B2911969C9398
:1023700011971296DC9012979B2C9094D92012966C
:10238000DC921297CB010197F1F71196DC9011972F
:10239000992D9D2111969C931197CA010197F1F7F0
:1023A0009C917894D9011197F1F79B2119F09A2DFE
:1023B0009064A92EA0810180F281E02DF894918192
:1023C0009A2B9183B281BA2EB094BB21B283CB01F8
:1023D0000197F1F7B1819B2D9B239183CA0101974E
:1023E000F1F790817894F9013197F1F79A2319F078
:1023F0009A2D9068A92ED801AD928D01AE15BF051A
:1024000009F09ECEE0911003F0911103208101802C
:10241000F281E02DF8948181322F309583238183DE
:1024200078949CE703C0915009F4EBCD808182231E
:10243000D1F3F8948281832382838181822B8183EB
:1024400078948CEB93E00197F1F7F894818138232D
:10245000318388E890E00197F1F780817894E0E398
:10246000F3E03197F1F7282309F0CBCD8981E82FEC
:10247000EF70F0E0EB5AF24F949182958F70E82F55
:10248000F0E0EB59F24FE491E9278A819E2F9827DB
:10249000E92FEF70F0E0EB5AF24F849192959F7024
:1024A000E92FF0E0EB59F24FE491E8278B818E277A
:1024B000E82FEF70F0E0EB5AF24F949182958F7015
:1024C000E82FF0E0EB59F24FE4919E278C8198279A
:1024D000E92FEF70F0E0EB5AF24F849192959F70E4
:1024E000E92FF0E0EB59F24FE4918E272D818227FE
:1024F000E82FEF70F0E0EB5AF24F949182958F70D5
:10250000E82FF0E0EB59F24FE491E9278E818E2716
:10251000E82FEF70F0E0EB5AF24F9491E82FE2953C
:10252000EF70F0E0EB59F24FE4919E278F819827EE
:10253000E92FEF70F0E0EB5AF24F849192959F7083
:10254000E92FF0E0EB59F24FE491E82788858E27D8
:10255000E82FEF70F0E0EB5AF24F949182958F7074
:10256000E82FF0E0EB59F24FE491E92789858E13CB
:1025700048CD2F3379F048F02F3529F02F3709F067
:1025800040CD8CE03FCD8BE03DCD2F3109F039CDF2
:1025900089E038CD8AE036CD2F923F924F925F92FC
:1025A0006F927F928F929F92AF92BF92CF92DF9263
:1025B000EF92FF920F931F93CF93DF93EC018B0168
:1025C0008D858823B9F01B861D861C8680E0DF91EF
:1025D000CF911F910F91FF90EF90DF90CF90BF9020
:1025E000AF909F908F907F906F905F904F903F90B3
:1025F0002F9008952881E981FA81F8948181322F02
:1026000030958323818378949CE702C09150D9F25E
:1026100080818223D9F3F89482818323828381810C
:10262000822B818378948CEB93E00197F1F7F894F7
:1026300081813823318388E890E00197F1F7808128
:102640007894E0E3F3E03197F1F7282309F0BBCF6A
:1026500060EFCE010E94811681E0F12C812CEE24E6
:10266000E39462E070E020E130E046E650E09AE674
:10267000692E712CEEE72E2E312CF6E0AF2EB12C08
:102680002AC0442009F47EC0FE01EF0DF11D9381A4
:10269000D82ED0949D2193839881E981FA81F89472
:1026A000D280C92EC094DC20D282D180D92AD18296
:1026B000D1011197F1F7D2809D2992837894F50189
:1026C0003197F1F7E394880F11F4F39481E0B7E0C8
:1026D000BF1508F472C09881E981FA81F894D1801D
:1026E000D92AD182D280992E9094D920D282DB012E
:1026F0001197F1F7D1809D209182D9011197F1F7BF
:1027000090807894FA013197F1F74880E981FA8155
:10271000F894D180D428D182D280542C5094D520E2
:10272000D282DB011197F1F7D1805D205182D9016E
:102730001197F1F7E0814E227894FA013197F1F781
:10274000992109F49ECF411038C0FE01EF0DF11D13
:102750009381982B93839880E981FA81F8949281F0
:10276000D92CD0949D219283918199299183D9016B
:102770001197F1F79281992992837894F301319717
:10278000F1F7A0CF9B85E91668F4FE01EF0DF11D6E
:102790009381D92ED822E9F6A8E0AE1508F0EC8690
:1027A0008E2C76CFDD24D3949E11D12CFE01EF0D1B
:1027B000F11D9381D110CDCFEFCFE0E4EE1508F0FD
:1027C00002CF8B86882019F18B81882309F4FBCEF8
:1027D000D8018C938C8111968C9311978D811296D0
:1027E0008C9312978E8113968C9313978F811496E6
:1027F0008C931497888515968C93159789851696D2
:102800008C9316978A8517968C9381E0E0CE81E0B1
:102810008D87DACF90E0FC01E25CF24F2491FC015D
:10282000E655F24F3491FC01ED56F24F8491882326
:1028300091F0211111C0E82FF0E0EE0FFF1FEB58CF
:10284000F24FA591B4919FB7F8948C91E32FE09546
:10285000E823EC939FBF0895243029F160F02830DD
:10286000E1F02930A1F0253031F7909180009F7D73
:1028700090938000E0CF223031F02330E1F694B520
:102880009F7D94BDD8CF94B59F7794BDD4CF9091C0
:10289000B0009F7D9093B000CECF9091B0009F7715
:1028A0009093B000C8CF909180009F779093800064
:1028B000C2CF9B01DC011896ED91FC91199741E084
:1028C00067E109941F920F920FB60F9211242F9374
:1028D0003F934F935F936F937F938F939F93AF93A8
:1028E000BF93EF93FF938091B900E82FE87F8E2F7D
:1028F00090E0893C910568F5FC01E65AFF4F0C9485
:10290000932F84E08093B7021092DC021092B402FD
:10291000E0E0F0E009958091B402811105C081E00A
:102920008093B40210929402E091DC0281E08E0F59
:102930008093DC02F0E0EC56FD4F80818093BB0079
:102940009091DC028091B4029817C8F485EC8093D2
:10295000BC00FF91EF91BF91AF919F918F917F91BB
:102960006F915F914F913F912F910F900FBE0F90FC
:102970001F9018958091FD02803208F4A8C085E868
:102980008093BC00E6CFE091DA0281E08E0F809365
:10299000DA028091BB00F0E0E754FD4F8083909114
:1029A000DA028091D902981750F7D0CF80E3809354
:1029B000B50285ED8093BC008091BC0084FDFCCF06
:1029C0001092B702C6CF88E38093B50285EC80935E
:1029D000BC001092B702BDCFE091DA0281E08E0F09
:1029E0008093DA028091BB00F0E0E754FD4F8083D2
:1029F0008091B802882309F47AC085ED8093BC00E9
:102A00008091BC0084FDFCCFDBCF83E08093B702D4
:102A10001092FD0285EC8093BC009BCF1092B50212
:102A200085ED8093BC008091BC0084FDFCCFC8CFB5
:102A30008091DB028093BB0085EC8093BC0089CF42
:102A40009091DA028091D902981708F459C08091C8
:102A5000B802882309F44BC085ED8093BC008091B7
:102A6000BC0084FDFCCFACCF80E28093B50285ED45
:102A70008093BC008091BC0084FDFCCFA1CF85EC8D
:102A80008093BC001092B7028091FD02803230F436
:102A9000E091FD02F0E0E352FD4F10826091FD02F3
:102AA00070E08DED92E0E0E0F0E009951092FD021B
:102AB00050CF85EC8093BC001092B7024ACF85EDD1
:102AC0008093BC008091BC0084FDFCCF79CFE09165
:102AD000FD0281E08E0F8093FD028091BB00F0E04B
:102AE000E352FD4F808385EC8093BC0032CF81E0C0
:102AF0008093B60284EA8093BC001092B70229CF7B
:102B0000E091DA0281E08E0F8093DA02F0E0E75480
:102B1000FD4F80818093BB0085EC8093BC0019CF72
:102B2000CF92DF92FF920F931F93CF93DF9300D04A
:102B300000D01F92CDB7DEB78C011C8281E08B8361
:102B40007A836983F801A081B1815196FC905197F5
:102B50001D8203C0F801A081B181F801C480D58035
:102B60009E012F5F3F4F50964C916FE0C801F601D8
:102B700009958D818F5F8D838F1560F30F900F9076
:102B80000F900F900F90DF91CF911F910F91FF90B9
:102B9000DF90CF90089590E0FC01E655F24F24912C
:102BA000FC01ED56F24F8491882399F090E0880F54
:102BB000991FFC01E158F24FA591B491FC01EB582B
:102BC000F24F859194918FB7F894EC91E22BEC93AE
:102BD0008FBF08952F923F924F925F926F927F9294
:102BE0008F929F92AF92BF92CF92DF92EF92FF921D
:102BF0000F931F93CF93DF93CDB7DEB72F970FB609
:102C0000F894DEBF0FBECDBF382E6E87E091320341
:102C1000F0913303329624912F8710923B034A019F
:102C2000212CCE0101966C0177247394F4016191FB
:102C30004F01E0912403F091250382E293E009958E
:102C40008F3FFFEF9F0709F442C08E3F2FEF92079F
:102C500069F3B82E8091320390913303FC013296D0
:102C6000449031965490A32CA40C8E85580E81E08C
:102C7000830DA81610F444244394EE84612CF62CA2
:102C8000132D0F2D96014B2D67E373E082E393E044
:102C90000E94730D1C87ED867B86DA86C986E091DB
:102CA0002603F09127039E01275F3F4F41E06FE02D
:102CB00082E293E00995F3941F5F1A1510F3E394F1
:102CC000640CE514E0F29F85390E2394AFCF822D7A
:102CD0002F960FB6F894DEBF0FBECDBFDF91CF9118
:102CE0001F910F91FF90EF90DF90CF90BF90AF902A
:102CF0009F908F907F906F905F904F903F902F901C
:102D000008958F929F92AF92BF92CF92DF92EF92EF
:102D1000FF920F931F93CF93DF93DC0148E050E0C5
:102D200021E00EE710E086E0882E912C90E1C92E7C
:102D3000D12C3AE6E32EF12C1CC08C911196ED912A
:102D4000FC911297F8949281382F309593239283B7
:102D50009181982B9183E6012197F1F79281892B3C
:102D600082837894C7010197F1F7220F41505109EE
:102D7000F9F0862F822309F79C911196ED91FC9131
:102D80001297F8948281392F309583238283818131
:102D9000892B8183E8012197F1F78281982B928317
:102DA0007894C4010197F1F7220F4150510909F7B6
:102DB000F8941196ED91FC91129791818C918095E8
:102DC000892381831196ED91FC91129792818C91C8
:102DD0008095892382837894DF91CF911F910F9101
:102DE000FF90EF90DF90CF90BF90AF909F908F902B
:102DF00008959091930280919202981758F4E92FC8
:102E0000F0E0EE58FD4F208130E09F5F90939302F9
:102E1000C90108952FEF3FEFFBCF8091920290E020
:102E200020919302821B91090895FC0190919103D6
:102E30009923D1F090919003903238F081E090E0A6
:102E40009383828380E090E0089580918F03E82F40
:102E5000F0E0E159FC4F60838F5F80938F03809394
:102E6000900381E090E008958091B702843019F0DA
:102E700081E090E0089581E08093B4026093940231
:102E800081E090E008959F92AF92BF92CF92DF923F
:102E9000EF92FF920F931F93CF93DF938C016A0100
:102EA00080919103882309F44EC04115510591F199
:102EB000EB017B01E40EF51E99249394AA24A394BC
:102EC000B12C06C0F801B382A282CE15DF0511F144
:102ED000D801ED91FC910190F081E02D6991B7E16D
:102EE000E531FB0769F580919103882301F1809119
:102EF0009003803238F780918F03E82FF0E0E1599A
:102F0000FC4F60838F5F80938F0380939003CE1577
:102F1000DF05F1F6C601DF91CF911F910F91FF9070
:102F2000EF90DF90CF90BF90AF909F9008958091E9
:102F3000B702843051F69092B40260939402C5CFE8
:102F4000C8010995C2CF413228F79091B702943059
:102F500009F74093B4024423E9F2DB01E4E9F2E02B
:102F60002FEF240F30E02B563D4F8D918193E217C8
:102F7000F307D9F7CFCF0F931F938B019C019FB716
:102F8000F89440916B0350916C0360916D037091C4
:102F90006E0386B5A89B06C08F3F21F04F5F5F4F41
:102FA0006F4F7F4F9FBF762F652F542F4427480FB9
:102FB000511D611D711D440F551F661F771F440F62
:102FC000551F661F771F440F551F661F771F01157A
:102FD000110521053105E9F1FFB7F89480916B03E4
:102FE00090916C03A0916D03B0916E03E6B5A89B20
:102FF00005C0EF3F19F00196A11DB11DFFBFBA2F0B
:10300000A92F982F88278E0F911DA11DB11D880F04
:10301000991FAA1FBB1F880F991FAA1FBB1F880FCC
:10302000991FAA1FBB1F841B950BA60BB70B883ECD
:103030009340A105B10580F2015011092109310920
:1030400048515C4F6F4F7F4F011511052105310528
:1030500019F61F910F9108951F920F920FB60F92BC
:1030600011242F933F938F939F93AF93BF9380919E
:10307000670390916803A0916903B0916A0330914E
:10308000920326E0230F2D3768F129E8230F0396DA
:10309000A11DB11D20939203809367039093680351
:1030A000A0936903B0936A0380916B0390916C03C2
:1030B000A0916D03B0916E030196A11DB11D809387
:1030C0006B0390936C03A0936D03B0936E03BF9159
:1030D000AF919F918F913F912F910F900FBE0F90C5
:1030E0001F9018950296A11DB11DD4CFCF93DF93E9
:1030F000CDB7DEB76F970FB6F894DEBF0FBECDBF6A
:10310000789484B5826084BD84B5816084BD85B5C2
:10311000826085BD85B5816085BD80916E008160CE
:1031200080936E0010928100809181008260809374
:103130008100809181008160809381008091800076
:103140008160809380008091B10084608093B100A1
:103150008091B00081608093B00080917A0084609B
:1031600080937A0080917A00826080937A008091C7
:103170007A008E7F80937A0080917A0080688093B5
:103180007A001092C100E0912603F091270320E01D
:1031900030E040E06AE082E293E00995CE010196DA
:1031A0009B8B8A8B88E0AA89BB891D928A95E9F757
:1031B000BE016F5F7F4F82E293E00E949015E09125
:1031C0002603F091270320E030E040E06BE082E24C
:1031D00093E0099589E00E94CB1589E00E940A14CA
:1031E00088E00E94CB15E6E4FDE08491E2EBFDE08F
:1031F0009491EBE9FDE0E491EE2379F081110FC1A8
:10320000F0E0EE0FFF1FEB58F24FA591B4912FB7EE
:10321000F8948C91892B8C932FBFE8EBFDE02491DF
:10322000E1EAFDE084918823C9F090E0880F991FBE
:10323000FC01E158F24FA591B4918B58924FFC01DB
:10324000459154913FB7F8949C91822F8095982393
:103250009C93FA019081892380833FBF81E10E9482
:10326000CB158FE00E94CB158FE00E940A1464E614
:1032700070E080E090E00E94BB17E0911003F091B5
:1032800011031386158614861286339687E0DF01B4
:103290001D928A95E9F710920E0310920F03FE011A
:1032A00039962F01F0E1EF2EF12CAAE66A2E712C4F
:1032B000BEE78B2E912C16E0A12EB12C02E0C02E81
:1032C000D12CBE016F5F7F4F80911003909111034D
:1032D0000E94CC12882309F4BAC02981E22FEF7032
:1032E000F0E0EB5AF24F8491E22FE295EF70F0E0BC
:1032F000EB59F24FE491982F9E278A818927E82F76
:10330000EF70F0E0EB5AF24F9491E82FE295EF70F6
:10331000F0E0EB59F24FE4919E278B818927E82F4B
:10332000EF70F0E0EB5AF24F9491E82FE295EF70D6
:10333000F0E0EB59F24FE4919E278C818927E82F2A
:10334000EF70F0E0EB5AF24F9491E82FE295EF70B6
:10335000F0E0EB59F24FE4919E278D818927E82F09
:10336000EF70F0E0EB5AF24F9491E82FE295EF7096
:10337000F0E0EB59F24FE4919E278E818927E82FE8
:10338000EF70F0E0EB5AF24F9491E82FE295EF7076
:10339000F0E0EB59F24FE4919E278F818927E82FC7
:1033A000EF70F0E0EB5AF24F9491E82FE295EF7056
:1033B000F0E0EB59F24FE491892F8E27988598130E
:1033C00080CF80910A03882311F40C946921109115
:1033D0000B03203111F40C945D21CE0101960E9463
:1033E000B80F811710F00C944E2280910B03998135
:1033F00080930B0380910E038F5F80930E039832AE
:1034000041F010F00C942E21903119F0923209F015
:1034100058CF80910F038F5F80930F0352CF84307A
:1034200011F40C94512110F40C944621883011F4BD
:103430000C943F21893011F40C943821853009F027
:10344000DFCE809180008F7D80938000D9CE64E6AE
:1034500070E080E090E00E94BB17809100019091A5
:1034600001018896909301018093000185E495E025
:10347000909333038093320382EF98E09093250377
:103480008093240345E851E060E082E00E94EA1561
:10349000A2EFB8E0B0932503A093240342E951E0E2
:1034A00061E081E00E94EA15E2EFF8E0F093250385
:1034B000E093240341EA51E062E080E00E94EA15D3
:1034C00070E4E72E73E0F72EF0923303E0923203BC
:1034D00082EF98E0909325038093240342EB51E020
:1034E00064E081E00E94EA15A2EFB8E0B093250302
:1034F000A093240341EC51E065E082E00E94EA15CC
:1035000068E873E180E090E00E94BB1788E0EA89F8
:10351000FB8911928A95E9F7BE016F5F7F4F82E2C6
:1035200093E00E949015109257031092580305E003
:1035300010E0E8E0DE2EF0923303E092320382EFF7
:1035400098E090932503809324034DEC51E060E0D4
:1035500080E00E94EA15A2EFB8E0B0932503A093A3
:1035600024034EED51E062E082E00E94EA15E2EFB2
:10357000F8E0F0932503E09324034CEE51E064E07F
:1035800080E00E94EA1582EF98E0909325038093F3
:1035900024034DEF51E066E080E00E94EA153FB75A
:1035A000F89480916B0390916C03A0916D03B0919E
:1035B0006E0326B5A89B05C02F3F19F00196A11DEB
:1035C000B11D3FBFBA2FA92F982F8827820F911DB9
:1035D000A11DB11D880F991FAA1FBB1F880F991F1E
:1035E000AA1FBB1F880F991FAA1FBB1F68EE862E3C
:1035F00063E0962EA12CB12C3FB7F89440916B0359
:1036000050916C0360916D0370916E0326B5A89B79
:1036100006C02F3F21F04F5F5F4F6F4F7F4F3FBF7F
:10362000762F652F542F4427420F511D611D711DA8
:10363000440F551F661F771F440F551F661F771FC6
:10364000440F551F661F771F481B590B6A0B7B0BD6
:10365000483E53406105710578F2E1E08E1A910809
:10366000A108B10888519C4FAF4FBF4F81149104FE
:10367000A104B10409F0C0CFAA89BB89ED2D1D9228
:10368000EA95E9F7BE016F5F7F4F82E293E00E9407
:10369000901510925703109258033FB7F8948091F9
:1036A0006B0390916C03A0916D03B0916E0326B5EE
:1036B000A89B05C02F3F19F00196A11DB11D3FBF6A
:1036C000BA2FA92F982F8827820F911DA11DB11DF8
:1036D000880F991FAA1FBB1F880F991FAA1FBB1F06
:1036E000880F991FAA1FBB1F68EC862E912CA12C56
:1036F000B12C3FB7F89440916B0350916C036091EB
:103700006D0370916E0326B5A89B06C02F3F21F074
:103710004F5F5F4F6F4F7F4F3FBF762F652F542F07
:103720004427420F511D611D711D440F551F661F17
:10373000771F440F551F661F771F440F551F661FC5
:10374000771F481B590B6A0B7B0B483E53406105A2
:10375000710578F2F1E08F1A9108A108B10888513B
:103760009C4FAF4FBF4F81149104A104B10409F0E5
:10377000C0CF0150110909F0DECECE010A969D8B13
:103780008C8BDE015296BF8BAE8B1EE7212E312C27
:1037900006E0802E912C80E1C82ED12CBAE6EB2ECB
:1037A000F12C1092320210923302109234021092D5
:1037B0003502E0911003F091110320810180F28124
:1037C000E02DF8948181322F309583238183789482
:1037D0009CE702C09150E9F080818223D9F3F894EC
:1037E0008281832382838181282B218378948CEBAF
:1037F00093E00197F1F7F89481813823318388E8C9
:1038000090E00197F1F78081789480E393E001974D
:10381000F1F7A0911003B091110328E030E051E0DE
:103820001CC01C911196ED91FC911297F894828125
:10383000412F4095842382838181812B8183C6011E
:103840000197F1F78281812B82837894C7010197D8
:10385000F1F7550F2150310901F1852F8C7C09F7C3
:103860001C911196ED91FC911297F8949281412F41
:103870004095942392839181912B9183C10101976B
:10388000F1F79281812F892B82837894C40101976B
:10389000F1F7550F2150310901F7F8941196ED9188
:1038A000FC91129781819C91909589238183119637
:1038B000ED91FC91129782819C919095892382834E
:1038C000789460910A03A0911003B091110328E04D
:1038D00030E051E01DC07C911196ED91FC91129762
:1038E000F8949281472F4095942392839181972B4E
:1038F0009183C6010197F1F79281872F892B8283EB
:103900007894C7010197F1F7550F2150310901F162
:10391000852F847401F77C911196ED91FC9112979B
:10392000F8949281472F4095942392839181972B0D
:103930009183C1010197F1F79281872F892B8283AF
:103940007894C4010197F1F7550F2150310901F71F
:10395000611114C0F8941196ED91FC911297818138
:103960009C919095892381831196ED91FC911297FA
:1039700082819C91909589238283789480910C0315
:103980008111E2C5E0911003F091110313861586B1
:10399000148612861186108617821682158214826A
:1039A0001382BE01665F7F4FCF010E94CC12882335
:1039B00009F475C08A85E82FEF70F0E0EB5AF24FFA
:1039C0009491E82FE295EF70F0E0EB59F24FE4911B
:1039D0009E278B858927E82FEF70F0E0EB5AF24F96
:1039E0009491E82FE295EF70F0E0EB59F24FE491FB
:1039F0009E278C858927E82FEF70F0E0EB5AF24F75
:103A00009491E82FE295EF70F0E0EB59F24FE491DA
:103A10009E278D858927E82FEF70F0E0EB5AF24F53
:103A20009491E82FE295EF70F0E0EB59F24FE491BA
:103A30009E278E858927E82FEF70F0E0EB5AF24F32
:103A40009491E82FE295EF70F0E0EB59F24FE4919A
:103A50009E278F858927E82FEF70F0E0EB5AF24F11
:103A60009491E82FE295EF70F0E0EB59F24FE4917A
:103A70009E2788898927E82FEF70F0E0EB5AF24FF4
:103A80009491E82FE295EF70F0E0EB59F24FE4915A
:103A9000892F8E279989981711F40C944A2760E092
:103AA00070E08EEF92EC60932E0270932F02809361
:103AB00030029093310205E010E040E4B42EEFE4D0
:103AC000FDE09491EBEBFDE02491E4EAFDE034911C
:103AD000332381F0911120C5E32FF0E0EE0FFF1F9B
:103AE000EB58F24FA591B4919FB7F8948C91822B2B
:103AF0008C939FBFB0927C0080917A008064809309
:103B00007A0080917A0086FDFCCF609178008091E8
:103B1000790070E0782B072E000C880B990B0E941F
:103B2000A83060932A0270932B0280932C0290930A
:103B30002D02B0927C0080917A00806480937A009C
:103B400080917A0086FDFCCF6091780080917900A9
:103B500070E0782B072E000C880B990B0E94A83080
:103B60009B01AC0160932A0270932B0280932C027C
:103B700090932D02EFE4FDE09491EBEBFDE0849156
:103B8000E4EAFDE064916623C9F09111ADC4E62F2B
:103B9000F0E0EE0FFF1FEB58F24FA591B4912FB755
:103BA000F8949C91809589238C932FBF20912A02B1
:103BB00030912B0240912C0250912D0260913202E3
:103BC0007091330280913402909135020E94C82F87
:103BD00060933202709333028093340290933502E3
:103BE0009FB7F89440916B0350916C0360916D0303
:103BF00070916E0386B5A89B06C08F3F21F04F5F82
:103C00005F4F6F4F7F4F9FBF762F652F542F4427F5
:103C1000480F511D611D711D440F551F661F771FF1
:103C2000440F551F661F771F440F551F661F771FD0
:103C300098E8492E93E1592E612C712C3FB7F894E6
:103C400080916B0390916C03A0916D03B0916E0312
:103C500026B5A89B05C02F3F19F00196A11DB11DE7
:103C60003FBFBA2FA92F982F8827820F911DA11D22
:103C7000B11D880F991FAA1FBB1F880F991FAA1F6C
:103C8000BB1F880F991FAA1FBB1F841B950BA60B78
:103C9000B70B883E9340A105B10580F2F1E04F1AC1
:103CA00051086108710848515C4F6F4F7F4F4114B4
:103CB00051046104710411F60150110909F0FFCE9D
:103CC0002DEC3CEC4CEC5DE36091320270913302E0
:103CD00080913402909135020E94343160932A021F
:103CE00070932B0280932C0290932D02E09110038D
:103CF000F091110320810180F281E02DF8948181FF
:103D0000322F30958323818378949CE702C09150B1
:103D1000E9F080818223D9F3F8948281832382831E
:103D20008181282B218378948CEB93E00197F1F724
:103D3000F89481813823318388E890E00197F1F786
:103D40008081789480E393E00197F1F7A0911003CC
:103D5000B091110328E030E051E01DC01C91119694
:103D6000ED91FC911297F8949281412F4095942304
:103D700092839181912B9183C6010197F1F79281F2
:103D8000812F892B82837894C7010197F1F7550F12
:103D900021503109F9F0852F8C7C01F71C91119687
:103DA000ED91FC911297F8948281412F40958423E4
:103DB00082838181812B8183C1010197F1F7828107
:103DC000812B82837894C4010197F1F7550F21501C
:103DD000310909F7F8941196ED91FC9112978181C0
:103DE0009C919095892381831196ED91FC91129776
:103DF00082819C91909589238283789460910A03B3
:103E0000A0911003B091110328E030E051E01CC0F4
:103E10007C911196ED91FC911297F8948281472F35
:103E20004095842382838181872B8183C6010197FA
:103E3000F1F78281872B82837894C7010197F1F78C
:103E4000550F21503109F9F0852F847409F77C91C1
:103E50001196ED91FC911297F8948281472F40952D
:103E6000842382838181872B8183C1010197F1F7AC
:103E70008281872B82837894C4010197F1F7550FD3
:103E80002150310909F7611114C0F8941196ED9190
:103E9000FC91129781819C91909589238183119641
:103EA000ED91FC91129782819C9190958923828358
:103EB000789480910C038111CEC3E0911003F091AE
:103EC00011031386158614861286118610861782B2
:103ED0001682158214821382BE01665F7F4FCF0166
:103EE0000E94CC12882309F475C08A85E82FEF70F0
:103EF000F0E0EB5AF24F9491E82FE295EF70F0E08A
:103F0000EB59F24FE4919E278B858927E82FEF70BC
:103F1000F0E0EB5AF24F9491E82FE295EF70F0E069
:103F2000EB59F24FE491E9278C858E27E82FEF704B
:103F3000F0E0EB5AF24F9491E82FE295EF70F0E049
:103F4000EB59F24FE491E9278D858E27E82FEF702A
:103F5000F0E0EB5AF24F9491E82FE295EF70F0E029
:103F6000EB59F24FE491892F8E279E858927E82F00
:103F7000EF70F0E0EB5AF24F949182958F70E82F3A
:103F8000F0E0EB59F24FE491E9278F858E27E82F77
:103F9000EF70F0E0EB5AF24F9491E82FE295EF705A
:103FA000F0E0EB59F24FE491E92788898E27E82F5A
:103FB000EF70F0E0EB5AF24F9491E82FE295EF703A
:103FC000F0E0EB59F24FE491892F8E2799899817E9
:103FD00009F4C8C360E070E08EEF92EC20912E02ED
:103FE00030912F0240913002509131020E94C82F2F
:103FF00020E030E040E05FE30E943431609336021D
:1040000070933702809338029093390220E030E0B9
:1040100048EC51E40E94C72F2CE731ED4EE95CE3F8
:104020000E94343120E030E040E85FE30E94C82F76
:104030009B01AC0164E771ED85E393E40E943430A9
:10404000688F798F8A8F9B8F60933E0270933F02B7
:10405000809340029093410220E030E040E45BE333
:1040600060912A0270912B0280912C0290912D0276
:104070000E9434312B013C016091000170910101DB
:10408000072E000C880B990B0E94A830A301920107
:104090000E9434316C8F7D8F8E8F9F8FA301920190
:1040A00060E070E080E490E40E94C72F9B01AC01C7
:1040B0006C8D7D8D8E8D9F8D0E94343020E030E0A0
:1040C00040E252E40E94C72F288D398D4A8D5B8DC6
:1040D0000E94343160933A0270933B0280933C0219
:1040E00090933D02AAE4B7E0B0933303A093320368
:1040F000E2EFF8E0F0932503E09324034EE052E072
:1041000060E080E00E94EA1502E412E022E043E071
:1041100064E771ED85E393E40E94D42C82EF98E08C
:104120009093250380932403A80160E084E00E941B
:10413000EA15A2EFB8E0B0932503A093240342E16F
:1041400052E060E08BE00E94EA15E2EFF8E0F093C5
:104150002503E093240348E152E062E080E00E94FE
:10416000EA1560913E0270913F0280914002909169
:10417000410221E043E00E94D42C82EF98E090932A
:10418000250380932403A80162E085E00E94EA15DC
:10419000A2EFB8E0B0932503A093240342E152E0DC
:1041A00062E08BE00E94EA15E2EFF8E0F09325036D
:1041B000E09324034DE152E064E080E00E94EA15C0
:1041C00060913A0270913B0280913C0290913D02D5
:1041D00026E046E00E94D42C82EF98E090932503DD
:1041E00080932403A80164E083E00E94EA15A2EF13
:1041F000B8E0B0932503A093240340E252E066E0C8
:1042000080E00E94EA156091360270913702809139
:1042100038029091390221E042E00E94D42CE2EF72
:10422000F8E0F0932503E0932403A80166E086E01C
:104230000E94EA1581EA98E0909325038093240375
:1042400046E252E066E08AE00E94EA15A0E0B0E0B3
:10425000AB2B09F4A6CA0E940000A0CA9B3311F43C
:104260000C94091A923411F00C9461190C94091AE7
:104270008091B0008F7D8093B0000C9400198091E4
:10428000B0008F778093B0000C940019823081F0D9
:10429000833011F00C94001984B58F7D84BD0C948B
:1042A0000019809180008F77809380000C94001912
:1042B00084B58F7784BD0C9400191D3008F4B0C00C
:1042C00010930B0380910E038F5F80930E030C9469
:1042D000091AE0911003F091110320810180F2810D
:1042E000E02DF8949181822F809598239183789482
:1042F0009CE73081322309F09DC09150D1F70091A5
:1043000010031091110365E5C8010E948116CE01CA
:1043100001961C01D1016D911D0128E030E091E072
:10432000862F892309F4A1C0F80180810180F281E0
:10433000E02DF8944281582F5095452342834181C6
:10434000482B4183D7011197F1F74281842B828357
:104350007894F3013197F1F7990F2150310901F762
:10436000F894F801A181B28111968C9111979081F6
:104370009095892311968C93A181B28112968C918C
:10438000129790819095892312968C937894241497
:10439000350409F0BFCF64EB8091100390911103B5
:1043A0000E948116E0911003F09111039081018029
:1043B000F281E02DF8948181892B81832281892FDC
:1043C000809528232283D6011197F1F7218182233A
:1043D0008183D7011197F1F7808198237894E6E6DD
:1043E000F0E03197F1F7E0911003F0911103308183
:1043F0000180F281E02DF8942181832F809528237C
:10440000218378942CE74081432309F052C0215046
:10441000D1F7992311F40C94052C29810C94E719F8
:104420008CE080930B0380910E038F5F80930E03CB
:104430000C94091AF8949281982392839181922B7B
:1044400091837894ACEBB3E01197F1F7F8949181F4
:104450008923818388E890E00197F1F7808178943F
:1044600080E393E00197F1F74ACFF8018081018062
:10447000F281E02DF8944281582F509545234283D4
:104480004181482B4183D4011197F1F74281842B5C
:1044900082837894F5013197F1F75ECF898180317D
:1044A00009F4BECFCE0101960E94B80F99810C94F9
:1044B000F819F8942281282322832181232B218338
:1044C0007894ACEBB3E01197F1F7F8942181822353
:1044D0008183A8E8B0E01197F1F780817894E0E358
:1044E000F3E03197F1F795CF943011F40C94412B10
:1044F00010F40C94F12A983011F40C943A2B993062
:1045000011F40C94332B953009F041CB909180003D
:104510009F7D909380003BCB943011F40C94052B3D
:1045200010F40C94E52A983011F40C94132B993064
:1045300011F40C940C2B953009F0CECA80918000B8
:104540008F7D80938000C8CAE0910B03E950E3306F
:1045500010F00C94012BF0E0EE0FFF1FEE5FFE4F0A
:104560000081118180910D03882331F080910A032D
:10457000882311F40C946B2B012E000C220B330BAF
:104580004FB7F89480916B0390916C03A0916D03E9
:10459000B0916E03E6B5A89B05C0EF3F19F00196F8
:1045A000A11DB11D4FBF4427582F692F7A2F4E0FE1
:1045B000511D611D711D440F551F661F771F440F4C
:1045C000551F661F771F440F551F661F771F011564
:1045D00011052105310509F4D5C9FFB7F89480917B
:1045E0006B0390916C03A0916D03B0916E03E6B5DF
:1045F000A89B05C0EF3F19F00196A11DB11DFFBF9B
:10460000BA2FA92F982F88278E0F911DA11DB11D9C
:10461000880F991FAA1FBB1F880F991FAA1FBB1FB6
:10462000880F991FAA1FBB1F841B950BA60BB70BE6
:10463000883E9340A105B10580F20150110921097E
:10464000310948515C4F6F4F7F4F0115110521050E
:10465000310519F697C9E0910B03E950E33010F0EA
:104660000C94FD2AF0E0EE0FFF1FEE5FFE4F00817D
:10467000118180910D03882331F080910A038823F2
:1046800011F40C94B82B012E000C220B330B4FB7F6
:10469000F89480916B0390916C03A0916D03B0919D
:1046A0006E03E6B5A89B05C0EF3F19F00196A11D6A
:1046B000B11D4FBF4427582F692F7A2F4E0F511D20
:1046C000611D711D440F551F661F771F440F551F35
:1046D000661F771F440F551F661F771F01151105B1
:1046E0002105310509F4E9CBFFB7F89480916B03FC
:1046F00090916C03A0916D03B0916E03E6B5A89BF9
:1047000005C0EF3F19F00196A11DB11DFFBFBA2FE3
:10471000A92F982F88278E0F911DA11DB11D880FDD
:10472000991FAA1FBB1F880F991FAA1FBB1F880FA5
:10473000991FAA1FBB1F841B950BA60BB70B883EA6
:104740009340A105B10580F20150110921093109F9
:1047500048515C4F6F4F7F4F011511052105310501
:1047600019F6ABCBE0911003F09111032081018089
:10477000F281E02DF8948181322F3095832381835B
:1047800078949CE703C0915009F424CC8081822363
:10479000D1F3F8948281832382838181822B818368
:1047A00078948CEB93E00197F1F7F89481813823AA
:1047B000318388E890E00197F1F780817894E0E315
:1047C000F3E03197F1F7282309F004CCA09110030E
:1047D000B091110348E050E021E01DC01C911196FA
:1047E000ED91FC911297F8949281312F309593239B
:1047F00092839181912B9183C6010197F1F7928168
:10480000812F892B82837894C7010197F1F7220FBA
:104810004150510901F1822F857501F71C911196C4
:10482000ED91FC911297F8949281312F309593235A
:1048300092839181912B9183C1010197F1F792812C
:10484000812F892B82837894C4010197F1F7220F7D
:104850004150510901F7F8941196ED91FC9112978E
:1048600081819C919095892381831196ED91FC9192
:10487000129782819C919095892382837894AE01CE
:10488000465F5F4FFA011191AF0128E030E071E01F
:104890001DC00C911196ED91FC911297F8949281A4
:1048A000602F6095962392839181902B9183C6010E
:1048B0000197F1F79281802F892B82837894C70129
:1048C0000197F1F7770F2150310901F1812F8723EB
:1048D00001F70C911196ED91FC911297F894928149
:1048E000602F6095962392839181902B9183C101D3
:1048F0000197F1F79281802F892B82837894C401EC
:104900000197F1F7770F2150310901F7F8941196CB
:10491000ED91FC91129791818C91809589238183EF
:104920001196ED91FC91129792818C91809589233B
:10493000828378948E899F894817590709F0A2CFFE
:10494000E0911003F091110348E050E021E025C010
:104950001081A181B281F89412968C911297312F17
:104960003095832312968C93129711968C91119700
:10497000812B11968C931197C6010197F1F712962E
:104980008C911297812B12968C937894C701019782
:10499000F1F7220F4150510949F1822F8E7BC1F668
:1049A0001081A181B281F89412969C911297312FB7
:1049B0003095932312969C93129711969C91119780
:1049C000912B11969C931197C1010197F1F71296C3
:1049D0009C911297812F892B12968C937894C40105
:1049E0000197F1F7220F41505109B9F6F894A181CE
:1049F000B28111968C91119790819095892311968F
:104A00008C93A181B28112968C911297908190958E
:104A1000892312968C937894DE01119642E050E03F
:104A200026E630E03D01E0911003F0911103708122
:104A300081819281F894DC0111966C911197672B1A
:104A400011966C93119712961C911297672F60958F
:104A5000162312961C93DA011197F1F7DC011196D7
:104A60001C911197612311966C93D6011197F1F760
:104A7000DC018C917894D9011197F1F7972F982345
:104A800081E009F480E0908161817281F894DB011A
:104A900011961C911197192B11961C931197129630
:104AA0000C911297192F1095012312960C93DA018D
:104AB0001197F1F7DB0111960C91119710231196C4
:104AC0001C93D6011197F1F7DB011C917894D90161
:104AD0001197F1F7912309F08260908161817281D1
:104AE000F894DB0111961C911197192B11961C93C8
:104AF000119712960C911297192F10950123129667
:104B00000C93DA011197F1F7DB0111960C911197D3
:104B1000102311961C93D6011197F1F7DB011C911C
:104B20007894D9011197F1F7912309F0846090816D
:104B300061817281F894DB0111961C911197192BF8
:104B400011961C93119712960C911297192F10958C
:104B5000012312960C93DA011197F1F7DB011196FC
:104B60000C911197102311961C93D6011197F1F710
:104B7000DB011C917894D9011197F1F7912309F089
:104B80008860908161817281F894DB0111961C919B
:104B90001197192B11961C93119712960C9112973D
:104BA000192F1095012312960C93DA011197F1F742
:104BB000DB0111960C911197102311961C93D601CD
:104BC0001197F1F7DB011C917894D9011197F1F756
:104BD000912309F08061908161817281F894DB01F9
:104BE00011961C911197192B11961C9311971296DF
:104BF0000C911297192F1095012312960C93DA013C
:104C00001197F1F7DB0111960C9111971023119672
:104C10001C93D6011197F1F7DB011C917894D9010F
:104C20001197F1F7912309F080629081618172817F
:104C3000F894DB0111961C911197192B11961C9376
:104C4000119712960C911297192F10950123129615
:104C50000C93DA011197F1F7DB0111960C91119782
:104C6000102311961C93D6011197F1F7DB011C91CB
:104C70007894D9011197F1F7912309F0806460814C
:104C80000180F281E02DF8949181962B91837281BD
:104C9000962F909579237283DA011197F1F771813C
:104CA00097239183D6011197F1F790817894F901B8
:104CB0003197F1F7962309F08068F30181933F0162
:104CC0008C899D898E179F0709F0ADCEE091100366
:104CD000F091110320810180F281E02DF89481810F
:104CE000322F30958323818378949CE703C09150C1
:104CF00009F470C980818223D1F3F89482818323DF
:104D000082838181822B818378948CEB93E001975D
:104D1000F1F7F89481813823318388E890E0019796
:104D2000F1F780817894E0E3F3E03197F1F72823FD
:104D300009F050C99981E92FEF70F0E0EB5AF24F7A
:104D40008491E92FE295EF70F0E0EB59F24FE49196
:104D50008E272A818227E82FEF70F0E0EB5AF24F7E
:104D60003491E82FE295EF70F0E0EB59F24FE491C7
:104D7000832F8E273B818327E82FEF70F0E0EB5ADB
:104D8000F24F349182958F70E82FF0E0EB59F24F9B
:104D9000E491E3278C818E27E82FEF70F0E0EB5A47
:104DA000F24F3491E82FE295EF70F0E0EB59F24FBB
:104DB000E491E3278D818E27E82FEF70F0E0EB5A26
:104DC000F24F3491E82FE295EF70F0E0EB59F24F9B
:104DD000E4913E278E818327E82FEF70F0E0EB5AB5
:104DE000F24F3491E82FE295EF70F0E0EB59F24F7B
:104DF000E491832F8E274F818427E82FEF70F0E016
:104E0000EB5AF24F3491E82FE295EF70F0E0EB5956
:104E1000F24FE491E3275885852F8E27E82FEF7016
:104E2000F0E0EB5AF24F3491E82FE295EF70F0E0AA
:104E3000EB59F24FE491832F8E27398583130C941D
:104E4000EA1F30E0322F2227330F330F330F892F21
:104E500090E0880F991F880F991F880F991F282BA2
:104E6000392B8A85803109F4E5C3B901613894EEA4
:104E7000790714F40C94EA1F072E000C880B990B89
:104E80000E94A83020E030E040E05CE30E94343132
:104E90000C94EE1FE0911003F0911103208101802A
:104EA000F281E02DF8948181322F30958323818324
:104EB00078949CE704C0915011F40C944F1D8081AC
:104EC0008223C9F3F8948281832382838181822B98
:104ED000818378948CEB93E00197F1F7F8948181CA
:104EE0003823318388E890E00197F1F78081789446
:104EF000E0E3F3E03197F1F7282311F00C944F1D14
:104F0000A0911003B091110348E050E021E01DC0D2
:104F10001C911196ED91FC911297F8949281312F8A
:104F20003095932392839181912B9183C6010197B0
:104F3000F1F79281812F892B82837894C7010197A1
:104F4000F1F7220F41505109F9F0822F857501F7D1
:104F50001C911196ED91FC911297F8948281312F5A
:104F60003095832382838181812B8183C1010197C5
:104F7000F1F78281812B82837894C4010197F1F744
:104F8000220F4150510909F7F8941196ED91FC91C7
:104F9000129781819C919095892381831196ED913F
:104FA000FC91129782819C919095892382837894B9
:104FB000AE01465F5F4FFA011191AF0128E030E08A
:104FC00071E01DC00C911196ED91FC911297F8942F
:104FD0009281602F6095962392839181902B91838B
:104FE000C6010197F1F79281802F892B82837894F3
:104FF000C7010197F1F7770F2150310901F1872F90
:10500000812301F70C911196ED91FC911297F89480
:105010009281602F6095962392839181902B91834A
:10502000C1010197F1F79281802F892B82837894B7
:10503000C4010197F1F7770F2150310901F7F89476
:105040001196ED91FC91129791818C918095892315
:1050500081831196ED91FC91129792818C918095AC
:105060008923828378948E899F894817590709F08C
:10507000A2CFE0911003F091110348E050E021E04D
:1050800026C01081A181B281F89412969C9112974A
:10509000312F3095932312969C93129711969C91E1
:1050A0001197912B11969C931197C6010197F1F7D7
:1050B00012969C911297812F892B12968C9378943B
:1050C000C7010197F1F7220F4150510949F1822F91
:1050D0008E7BB9F61081A181B281F89412969C91D1
:1050E0001297312F3095932312969C931297119615
:1050F0009C911197912B11969C931197C101019747
:10510000F1F712969C911297812F892B12968C930E
:105110007894C4010197F1F7220F41505109B9F673
:10512000F894A181B28111968C91119790819095FC
:10513000892311968C93A181B28112968C9112973A
:1051400090819095892312968C937894DE01119624
:1051500042E050E026E630E03D01E0911003F0919E
:105160001103608181819281F894DC0111967C9118
:105170001197762B11967C93119712961C9112978A
:10518000762F7095172312961C93DA011197F1F779
:10519000DC0111961C911197712311967C93D60115
:1051A0001197F1F7DC017C917894C9010197F1F72F
:1051B000672381E009F480E0908161817281F89435
:1051C000DB0111961C911197192B11961C931197C5
:1051D00012960C911297192F1095012312960C9389
:1051E000DA011197F1F7DB0111960C911197102359
:1051F00011961C93D6011197F1F7DB011C9178945D
:10520000D9011197F1F7912309F0826090816181B2
:105210007281F894DB0111961C911197192B11964C
:105220001C93119712960C911297192F1095012328
:1052300012960C93DA011197F1F7DB0111960C919C
:105240001197102311961C93D6011197F1F7DB01EA
:105250001C917894D9011197F1F7912309F084609A
:10526000908161817281F894DB0111961C911197F4
:10527000192B11961C93119712960C911297192FB6
:105280001095012312960C93DA011197F1F7DB01C7
:1052900011960C911197102311961C93D60111971A
:1052A000F1F7DB011C917894D9011197F1F7912363
:1052B00009F08860908161817281F894DB01119618
:1052C0001C911197192B11961C93119712960C9102
:1052D0001297192F1095012312960C93DA0111974A
:1052E000F1F7DB0111960C911197102311961C9385
:1052F000D6011197F1F7DB011C917894D901119730
:10530000F1F7912309F08061908161817281F894B5
:10531000DB0111961C911197192B11961C93119773
:1053200012960C911297192F1095012312960C9337
:10533000DA011197F1F7DB0111960C911197102307
:1053400011961C93D6011197F1F7DB011C9178940B
:10535000D9011197F1F7912309F080629081618161
:105360007281F894DB0111961C911197192B1196FB
:105370001C93119712960C911297192F10950123D7
:1053800012960C93DA011197F1F7DB0111960C914B
:105390001197102311961C93D6011197F1F7DB0199
:1053A0001C917894D9011197F1F7912309F0806449
:1053B00060810180F281E02DF8949181962B918398
:1053C0007281962F909579237283DA011197F1F704
:1053D000718197239183D6011197F1F79081789489
:1053E000F9013197F1F7962309F08068F301819371
:1053F0003F018C899D898E179F0709F0AECEE09101
:105400001003F091110320810180F281E02DF894C6
:105410008181322F30958323818378949CE704C067
:10542000915011F40C944F1D80818223C9F3F8949C
:105430008281832382838181822B818378948CEB88
:1054400093E00197F1F7F89481813823318388E85C
:1054500090E00197F1F780817894E0E3F3E03197F1
:10546000F1F7282311F00C944F1D9981E92FEF706B
:10547000F0E0EB5AF24F8491E92FE295EF70F0E003
:10548000EB59F24FE4918E272A818227E82FEF70A3
:10549000F0E0EB5AF24F3491E82FE295EF70F0E034
:1054A000EB59F24FE491832F8E273B818327E82F1E
:1054B000EF70F0E0EB5AF24F3491E82FE295EF7085
:1054C000F0E0EB59F24FE4913E278C818327E82FDF
:1054D000EF70F0E0EB5AF24F3491E82FE295EF7065
:1054E000F0E0EB59F24FE4913E278D818327E82FBE
:1054F000EF70F0E0EB5AF24F3491E82FE295EF7045
:10550000F0E0EB59F24FE4913E278E818327E82F9C
:10551000EF70F0E0EB5AF24F3491E82FE295EF7024
:10552000F0E0EB59F24FE491832F8E274F818427CF
:10553000E82FEF70F0E0EB5AF24F3491E82FE2954C
:10554000EF70F0E0EB59F24FE491832F8E275885EE
:105550008527E82FEF70F0E0EB5AF24F3491E82FF7
:10556000E295EF70F0E0EB59F24FE491832F8E2734
:10557000398538130C944F1D30E0322F2227330F1A
:10558000330F330F892F90E0880F991F880F991FD1
:10559000880F991F282B392B8A85803109F482C006
:1055A000B901613894EE790714F40C944F1D072E5D
:1055B000000C880B990B0E94A83020E030E040E0FE
:1055C0005CE30E9434310C94531D923009F460C0A6
:1055D000933011F00C946C1D84B58F7D84BD0C94B8
:1055E0006C1D923009F459C0933011F00C94C71D12
:1055F00094B59F7D94BD0C94C71D0EEE12E00C94E3
:1056000039230EEE12E00C94B222809180008F7745
:10561000809380000C946C1D8091B0008F7D8093EE
:10562000B0000C946C1D8091B0008F778093B00017
:105630000C946C1D652F70E0CB01841B910996952D
:10564000982F8827979587950E945D2F6051710943
:10565000C901807F880F991F880F991F880F991F94
:10566000680F791F03CC9091B0009F7D9093B0009C
:105670000C94C71D9091B0009F779093B0000C944C
:10568000C71D909180009F77909380000C94C71D58
:1056900084B58F7784BD0C946C1D94B59F7794BDB1
:1056A0000C94C71D652F70E0CB01841B9109969562
:1056B000982F8827979587950E945D2F60517109D3
:1056C000C901807F880F991F880F991F880F991F24
:1056D000680F791F66CF8FB7F8944090670350909A
:1056E00068036090690370906A038FBF62E070E0A6
:1056F00046E650E0012E000C220B330BE091100324
:10570000F091110390810180F281E02DF894818164
:10571000892B8183A281892F8095A823A283DB0115
:105720001197F1F7A1818A238183D6011197F1F7AF
:1057300080817894FA013197F1F7892311F00C9464
:10574000C21CEFB7F8948091670390916803A09111
:105750006903B0916A03EFBF801B910BA20BB30BDF
:1057600084159505A605B70508F4C8CF0C94C21C8E
:105770008FB7F89440906703509068036090690376
:1057800070906A038FBF62E070E046E650E0012E41
:10579000000C220B330BE0911003F0911103908168
:1057A0000180F281E02DF8948181892B8183A2818F
:1057B000892F8095A823A283DB011197F1F7A1819E
:1057C0008A238183D6011197F1F780817894FA01B9
:1057D0003197F1F7892311F00C945D1FEFB7F8941E
:1057E0008091670390916803A0916903B0916A0367
:1057F000EFBF801B910BA20BB30B84159505A6057B
:10580000B70508F4C8CF0C945D1F81E080930A03AC
:1058100029810C94E719CF93DF9310920103109222
:10582000000388EE93E0A0E0B0E080930203909341
:105830000303A0930403B093050381E791E09093E1
:10584000FF028093FE021092210310922003109217
:1058500057031092580381E891E090931F038093BF
:105860001E0310922303109222031092370310920A
:105870003A0310923B0310922E0310922F031092C2
:10588000300310923103CFEFC0933803C0933D0330
:1058900046E150E06FEF70E081E493E00E94AF31A9
:1058A0008BEC97E0909327038093260381EE9AE098
:1058B00090932903809328038CEF98E090932B0317
:1058C00080932A0389E89BE090932D0380932C0317
:1058D00020E030E040E069E082E293E00E94CB0704
:1058E000C0934C03C0934D03C0934E0344EB5DE063
:1058F000FA0164918DE99DE0FC0124912223C1F01D
:1059000030E0220F331FF901E158F24FA591B49115
:10591000F901EB58F24FC591D4917FB7F8943C91BF
:10592000262F209532233C933881232328837FBF61
:10593000FA01449140935903FC018491E82FF0E06F
:10594000EE0FFF1FE757F24F8591949190935B0301
:1059500080935A03109264031092660310926503B9
:105960001092630387E0ECE5F3E0DF011D928A9576
:10597000E9F789E593E09093110380931003109267
:105980000E0310920F0310920A0389E080930B0319
:1059900081E080930C0380930D0310921D031092FD
:1059A0001C03DF91CF910895EF920F931F93CF9334
:1059B000DF93E80147FD02C034E001C034E1042E6A
:1059C000000C550B57FF03C0519541955109E32E2B
:1059D000022F242FAE010E94F42CCE01DF91CF9133
:1059E0001F910F91EF900895A9E0B0E0EAEFFCE27B
:1059F0000C942C2F6A01122FB02E2BE3201720F0CD
:105A0000FF24F394F00E02C02CE3F22E0F2D27E0BA
:105A1000AE014F5F5F4F0E944E2EBC014981842F23
:105A20008970813031F0E1FC06C0E0FE06C090E2F2
:105A300005C09DE203C09BE201C090E05E2D507165
:105A400043FF3CC0911102C083E001C084E0811794
:105A500018F4212F281B01C020E051110BC0F601C2
:105A6000822F30E2882319F031938150FBCFC20E90
:105A7000D11C20E0992329F0D6019C93F6013196A0
:105A80006F01C6010396E2FE0AC03EE4D6013C93D4
:105A900041E411964C93119712963C9306C03EE652
:105AA000F601308341E641833283FC01322F40E22C
:105AB000332309F442C041933150FACF42FF44C02E
:105AC000911102C083E001C084E0811718F4212FF6
:105AD000281B01C020E051110BC0F601822F30E2DB
