:100000000C94E40D0C940C0E0C940C0E0C940C0E31
:100010000C940C0E0C940C0E0C940C0E0C940C0EF8
:100020000C940C0E0C940C0E0C940C0E0C940C0EE8
:100030000C940C0E0C940C0E0C940C0E0C940C0ED8
:100040000C942E1F0C940C0E0C940C0E0C940C0E95
:100050000C940C0E0C940C0E0C940C0E0C940C0EB8
:100060000C94641B0C940C0EDD122813D312D312C3
:100070009A12CD129A129A129A129A129A129A12ED
:100080009A129A129A129A129A129A129A129A1210
:100090009A129A129A129A129A129A129A129A1200
:1000A0009A129A129A129A129A129A129A129A12F0
:1000B00098139813101CAB1BAB1BAB1BAB1BAB1BE0
:1000C000AB1BAB1B1A1CAB1BAB1BAB1BAB1BAB1B90
:1000D000AB1BAB1B1A1CAB1BAB1BAB1BAB1BAB1B80
:1000E000AB1BAB1B221CAB1BAB1BAB1BAB1BAB1B68
:1000F000AB1BAB1B361CAB1BAB1BAB1BAB1BAB1B44
:10010000AB1BAB1B221CAB1BAB1BAB1BAB1BAB1B47
:10011000AB1BAB1BD81BAB1BAB1BAB1BAB1BAB1B82
:10012000AB1BAB1BE51BAB1BAB1BAB1BAB1BAB1B65
:10013000AB1BAB1BD11BAB1BAB1BAB1BAB1BAB1B69
:10014000AB1BAB1B611CAB1BAB1BAB1BAB1BAB1BC8
:10015000AB1BAB1BC51BAB1BAB1BAB1BAB1BAB1B55
:10016000AB1BAB1BEE1BAB1BAB1BAB1BAB1BAB1B1C
:10017000AB1BAB1B071CAB1BAB1BAB1BAB1BAB1BF2
:10018000AB1BAB1B071CAB1BAB1BAB1BAB1BAB1BE2
:10019000AB1BAB1B071CAB1BAB1BAB1BAB1BAB1BD2
:1001A000AB1BAB1B071CAB1BAB1BAB1BAB1BAB1BC2
:1001B000AB1BAB1BBC1BAB1BAB1BAB1BAB1BAB1BFE
:1001C000AB1BAB1BC11BAB1BAB1BAB1BAB1BAB1BE9
:1001D000AB1BAB1BBC1BAB1BAB1BAB1BAB1BAB1BDE
:1001E000AB1BAB1BC11BAB1BAB1BAB1BAB1BAB1BC9
:1001F000AB1BAB1B411CAB1BAB1BAB1BAB1BAB1B38
:10020000AB1BAB1B831BAB1BAB1BAB1BAB1BAB1BE6
:10021000AB1BAB1B831BAB1BAB1BAB1BAB1BAB1BD6
:10022000AB1BAB1B961BAB1BAB1BAB1BAB1BAB1BB3
:10023000AB1BAB1B5B1CAB1BAB1BAB1BAB1BAB1BDD
:10024000AB1BAB1B5B1C00407A10F35A00A0724E34
:1002500018090010A5D4E80000E87648170000E46B
:100260000B54020000CA9A3B000000E1F5050000B3
:1002700080969800000040420F000000A086010018
:100280000000102700000000E803000000006400E8
:10029000000000000A000000000001000000000053
:1002A0002C76D888DC674F0823DFC1DFAE59E1B177
:1002B000B796E5E3E453C63AE651997696E8E6C286
:1002C0008426EB898C9B62ED407C6FFCEFBC9C9F8D
:1002D00040F2BAA56FA5F490055A2AF75C936B6CAF
:1002E000F9676DC11BFCE0E40D47FEF520E6B500A3
:1002F000D0ED902E0300943577050080841E080011
:1003000000204E0A000000C80C333333330F986EC0
:1003100012831141EF8D2114893BE65516CFFEE67D
:10032000DB18D1844B381BF77C1D901DA4BBE42443
:10033000203284725E228100C9F124ECA1E53D27C0
:10034000405B04040000000000000000000000000A
:10035000FFFFFFFF000000000000000000000000A1
:10036000000000000000000000000000000000008D
:10037000FFFFFFFF00000000000000000000000081
:100380000000000000000000103070F0F0F0F0F00D
:10039000FFFFFFFFF0F0F0F0F07030100000000001
:1003A00000000000000000000000000001070F1F17
:1003B0003F7FFF3F1F0F070100000000000000000B
:1003C00000000000000000000000000080C0E0F01D
:1003D000000000000000000000000000000000001D
:1003E000000000004060F0F8FCFEFEFFFFFFFFFF92
:1003F000F0F0F0F0F0F0F0F0F0F0F0F0F0F0F0F0FD
:10040000F0F0F0F0000000010307070F1F3F7FFF2F
:1004100000000000000000000000000000000000DC
:1004200000000000000000000000000000000000CC
:1004300000000000000000000000000000000000BC
:1004400000000000000000000000000000000000AC
:100450000000000000000000F0E0C080000000008C
:1004600000000000F0F0F0F0F0F0F0F0F0F0F0F04C
:10047000F0F0F0F0F0F0F0F0FFFFFFFFFFFEFEFC09
:10048000F8F0602000000000000000000000000004
:100490000000000000000000FF7F3F1F0F07070360
:1004A000010000000000000000000000000000004B
:1004B000000000000000000000000000000000003C
:1004C00000000000000000000000000080E0F0F8E4
:1004D000FCFFFEFCF8F0E0800000000000000000DF
:1004E0000000000000000000080C0E0F0F0F0F0F9F
:1004F000FFFFFFFF0F0F0F0F0F0E0C080000000093
:1005000000000000000000000000000000000000EB
:10051000FFFFFFFF000000000000000000000000DF
:1005200000000000000000000000000000000000CB
:10053000FFFFFFFF000000000000000000000000BF
:1005400000000000000080C0E0F0F8FCFCFEFEFEB1
:100550000F0F0F0F0F0F0F0FFEFEFEFCFCF8F0E069
:10056000C0800000F0FEFFFFFFFFFFFFFFFFFFFF67
:100570000000000000000000FFFFFFFFFFFFFFFF83
:10058000FFFFFEF00F7FFFFFFEFCF8F0E0C08000F1
:1005900000000000000000000080C0E0F0F8FCFE59
:1005A000FFFF7F0F00000103070F1F3F3F7F7F7F8B
:1005B000FEFCF8F0F0F8FCFE7F7F7F3F3F1F0F0747
:1005C00003010000000080C0E0F0F8FCFCFEFEFE2D
:1005D0007F3F1F0FFFFFFFFFFEFEFEFCFCF8F0E079
:1005E000C0800000F0FEFFFF7F3F1F0F07030100E8
:1005F000000000000F0F0F0F0F0F0F0F0F0F0F0F47
:10060000FFFFFEF00F7FFFFFFEFCF8F0E0C0800070
:1006100000000000F0F0F0F0F0F0F0F0F0F0F0F09A
:10062000FFFF7F0F00000103070F1F3F3F7F7F7F0A
:10063000FEFCF8F0FFFFFFFF7F7F7F3F3F1F0F07AC
:1006400003010000000080C0E0F0F8FCFCFEFEFEAC
:10065000FFFFFFFF0F1F3F7FFEFEFEFCFCF8F0E0F8
:10066000C0800000F0FEFFFF0F0F0F0F0F0F0F0FE6
:100670000F0F0F0F00000000000103070F1F3F7F47
:10068000FFFFFEF00F7FFFFFF0F0F0F0F0F0F0F072
:10069000F0F0F0F0000000000080C0E0F0F8FCFE98
:1006A000FFFF7F0F00000103070F1F3F3F7F7F7F8A
:1006B000FFFFFFFFF0F8FCFE7F7F7F3F3F1F0F072C
:1006C00003010000000080C0E0F0F8FCFCFEFEFE2C
:1006D0007F3F1F0F0F1F3F7FFEFEFEFCFCF8F0E088
:1006E000C0800000F0FEFFFF7F3F1F0F07030100E7
:1006F0000000000000000000000103070F1F3F7F03
:10070000FFFFFEF00F7FFFFFFFFFFFFFFFFFFFFF79
:100710000000000000000000FFFFFFFFFFFFFFFFE1
:10072000FFFF7F0F00000103070F1F3F3F7F7F7F09
:10073000F0F0F0F0F0F0F0F07F7F7F3F3F1F0F0709
:1007400003010000000000000000000000000000A5
:10075000FFFFFFFFFFFFFFFF0000000000000000A1
:100760000000000000000000000000000000000089
:10077000FFFFFFFFFFFFFFFF000000000000000081
:10078000000000000000000000103070F0F0F0F0F9
:10079000FFFFFFFFFFFFFFFFF0F0F0F0F070300011
:1007A000000000000000000000000000000103073E
:1007B0000F1F3F7FFF7F3F1F0F0703010000000057
:1007C0000000000000000000000000000080C0E009
:1007D0000000000000000000000000000000000019
:1007E000000000000080C0E0F0F8FCFEFFFFFFFF0B
:1007F000F0F0F0F0F0F0F0F0F0F0F0F0F0F0F0F0F9
:10080000F0F0F0F00103070F1F3F7FFFFFFFFFFF36
:100810000F0F0F0F0F0F0F0F0F0F0F0F0F0F0F0FE8
:100820000F0F0F0F0000000000000000010307077A
:1008300000000000000000000000000000000000B8
:1008400000000000000000000000000000000000A8
:100850000000000000000000E0E0C0800000000098
:1008600000000000F0F0F0F0F0F0F0F0F0F0F0F048
:10087000F0F0F0F0F0F0F0F0FFFFFFFFFFFEFCF80B
:10088000F0E0C0800F0F0F0F0F0F0F0F0F0F0F0FA4
:100890000F0F0F0F0F0F0F0FFFFFFFFF7F3F1F0FF8
:1008A000070301000000000000000000000000003D
:1008B000000000000000000007030100000000002D
:1008C00000000000000000000000000080C0E0F018
:1008D000F8FCFEFFFEFCF8F0E0C080000000000025
:1008E0000000000000000000000C0E0F0F0F0F0FA3
:1008F000FFFFFFFFFFFFFFFF0F0F0F0F0E0C0800A2
:1009000000000000000000000000000000000000E7
:10091000FFFFFFFFFFFFFFFF0000000000000000DF
:1009200000000000000000000000000000000000C7
:10093000FFFFFFFFFFFFFFFF0000000000000000BF
:1009400000000000000000000000000000000000A7
:100950000000000000000000000000000000000097
:1009600000000000000103070F1F3F7FFFFFFFFF94
:10097000FFFFFFFFFFFFFFFFFFFFFFFF7F3F1F0F97
:100980000703010000000000000000000001030751
:100990000F1F3F7F7F3F1F0F070301000000000074
:1009A0000000000000000000000000000000000047
:1009B0000000000000000000000000000000000037
:1009C0000000000000000000000000000000000027
:1009D000000000000080C0E0F0F8FCFE0000000015
:1009E0000000000000000000000000000080C0E0E7
:1009F000F0F8FCFEFFFFFFFFFFFFFFFF000000001D
:100A000000000000000000000000000000010307DB
:100A10000F1F3F7FFFFFFFFFFFFFFFFF00000000F2
:100A200000000000000000000000000000000000C6
:100A300000000000000103070F1F3F7F00000000BF
:100A4000000000000000000000000000FEFCF8F0C4
:100A5000E0C0800000000000000000000000000076
:100A6000000000000000000000000000FFFFFFFF8A
:100A7000FFFFFFFFFEFCF8F0E0C080000000000078
:100A8000000000000000000000000000FFFFFFFF6A
:100A9000FFFFFFFF7F3F1F0F070301000000000063
:100AA0000000000000000000000000007F3F1F0F5A
:100AB000070301000000000000000000000000002B
:100AC0000000000000000000000000000000000026
:100AD0000000000000000000000000000000000016
:100AE0000000000000000000000000000080C0E0E6
:100AF000F0F8FCFEFEFCF8F0E0C080000000000012
:100B0000000000000080C0E0F0F8FCFEFFFFFFFFE7
:100B1000FFFFFFFFFFFFFFFFFFFFFFFFFEFCF8F0FF
:100B2000E0C08000000000000000000000000000A5
:100B300000000000000000000000000000000000B5
:100B40000000000000000080C0E0E0C08000000065
:100B5000000000000000000000000080C0E0E0C0D5
:100B60008000000000060F1F3F7FFFFFFFFFFEFC1D
:100B7000F8F0E0C0C0E0F0F8FCFEFFFFFFFF7F3FB1
:100B80001F0F0600000000000000000103070F1FF8
:100B90003F7FFFFFFFFF7F3F1F0F070301000000A4
:100BA0000000000000000000000000000000000045
:100BB0000000000101000000000000000000000033
:100BC0000000000000000000000000000000000025
:100BD0000080C0E0F0F8FCFEFEFCF8F060000000D1
:100BE00000000000000000000080C0E0F0F8FCFE03
:100BF000FFFFFFFF7F3F1F0F070301000000000002
:100C00000000000000000000000103070F1F3F7FED
:100C1000FFFFFFFFFEFCF8F0E0C0800000000000D6
:100C200000000000000000000000000000000000C4
:100C3000000103070F1F3F7F7F3F1F0F06000000CB
:100C400000000000000000000060F0F8FCFEFEFC68
:100C5000F8F0E0C08000000000000000000000008C
:100C600000000000000000000000000103070F1F4B
:100C70003F7FFFFFFFFFFEFCF8F0E0C080000000B8
:100C8000000000000000000000000080C0E0F0F85C
:100C9000FCFEFFFFFFFF7F3F1F0F07030100000067
:100CA000000000000000000000060F1F3F7F7F3F94
:100CB0001F0F0703010000000000000000000000FB
:100CC0000000000000000000000000000000000024
:100CD0000080C0E0E0C080000000000000000000D4
:100CE00000000000000000000080C0E0F0F8FCFE02
:100CF000FFFFFFFFFFFFFFFFFEFCF8F0E0C08000FA
:100D00000000000000183C7EFFFFFFFF7F3F1F0F29
:100D100007030100000103070F1F3F7FFFFFFFFFD5
:100D20007E3C1800000000000001010000000000EF
:100D300000000000000000000000000000010100B1
:100D400000000000000000000000000000000000A3
:100D5000FFFFFFFFFFFFFFFF00000000000000009B
:100D6000000000000000000000103070F0F0F0F013
:100D7000FFFFFFFFFFFFFFFFF0F0F0F0703010000B
:100D80000000000000000000000000000001030758
:100D90000F1F3F7F7F3F1F0F070301000000000070
:100DA00000000000F0F0F0F0F0F0F0F0F0F0F0F003
:100DB000F0F0F0F0F0F0F0F0F0F0F0F0F0F0F0F033
:100DC000F0F0F0F00F0F0F0F0F0F0F0F0F0F0F0FAF
:100DD0000F0F0F0F0F0F0F0F0F0F0F0F0F0F0F0F23
:100DE0000F0F0F0F00000000000000000080C0E0A7
:100DF000F0F8FCFEFEFCF8F0E0C08000000000000F
:100E0000000000000000000000080C0E0F0F0F0F84
:100E1000FFFFFFFFFFFFFFFF0F0F0F0F0E0C08007C
:100E200000000000000000000000000000000000C2
:100E3000FFFFFFFFFFFFFFFF0000000000000000BA
:100E400000000000C0E0F0F0F0F0F0F0F0F0F0F0A2
:100E5000F0F0F0F0F0F0F0F0F0F0F0F0FFFEFCF861
:100E6000F8F060000F0F0F0F0000000000000000FE
:100E70000000000000000000000000000F07030158
:100E8000010000000060F0F8F8FCFEFFF0F0F0F068
:100E9000F0F0F0F0F0F0F0F0F0F0F0F0F0F0F0F052
:100EA000FFFF7F3F000000010103070F000000006B
:100EB0000000000000000000000000000000000032
:100EC00000000000000000000000000080C0E0E022
:100ED000E0F0F0F000000000000000000000000062
:100EE0000000000000000000E0FCFEFF1F070301FF
:100EF000010000000000000080C0E0F8FCFEFEFCE5
:100F0000F8E0C0800103071F3F7F7F3F1F070301F9
:100F1000000000000000008080C0E0F8FF7F3F0775
:100F200000000000000000000000000000000000C1
:100F3000000000000F0F0F0707070301000000006B
:100F40000000000000000000FFFFFFFF0F0F0F0F69
:100F50000F0F0F0F0F0F0F0F0F0F0F0FFFFFFFFFE1
:100F600000000000000000C0E0F8F8E0C000000051
:100F700000000000000000001030F0F0FFFFFFFF55
:100F8000F0F03010080C0F0FFFFFFFFF0F0F0C08E1
:100F9000000000000000000000000003071F1F0702
:100FA0000300000000000000FFFFFFFFF0F0F0F082
:100FB000F0F0F0F0F0F0F0F0F0F0F0F0FFFFFFFFF5
:100FC00000000000F0F0F0F0F0F0E0C08000000061
:100FD000000000000080C0E0F0F0F0F0FFFEFCF840
:100FE000F8F06000000000000103070F1F3FFEF84B
:100FF000F0F0F8FC7E3F0F07030100000F0703012C
:10100000010000000000000080C0E0F0FC7E3F1FF7
:101010000F070F1F7FFCF8F0E0C08000F0E0C080F9
:10102000800000000F0F0F0F0F0F070301000000DB
:101030000000000000000103070F0F0FFF7F3F1F9C
:101040001F0F06000000000000000000000000006C
:101050000000000000000000FFFEFCF8F0E0C0808F
:1010600000000000000000C0E0F0F8F8FCFCFEFE0C
:10107000FEFEFFFFFFFFFFFFFFFFFFFFFFFFFFFF82
:101080007F3E1C08C0FC3F1F0F0707030101010042
:1010900000000000000000007F3F1F0F0703010059
:1010A000000000000300000000000000000000003D
:1010B0000000000000000000000000000000000030
:1010C00000000000FEFFFFFF0F0F0F0F0F0F0F0FAD
:1010D000000080C0C0E0E0E0F0F0F0F0FEFCF8F0CE
:1010E000E0E0C080FFFFFFFF000000000040301C78
:1010F0001E0F0F0F0F0F0F0F0F0F0F0F7F3F1F0F41
:1011000007030100FFFFFFFF0000000000000000D8
:101110000000000000000000F0F0F0F0000000000F
:1011200000000000070F0F0F0F0F0F0F0F0F0F0F13
:101130000F0F0F0F0F0F0F0F0F0F0F070000000003
:1011400000000000205F010100000000000000001E
:101150000000005F5F0000000007070000070700B5
:1011600000227F7F227F7F22242E2A6B2A3A1200C0
:10117000466630180C66620020765F493F76500064
:10118000000000070700000000001C3E6341000053
:10119000000041633E1C000004151F0E1F150400D3
:1011A0000008083E3E0808000000407030000000C3
:1011B000000808080808080000000060600000003F
:1011C000006030180C0603003E7F4141417F3E0025
:1011D0000040427F7F40400062735949494F4600BA
:1011E00022634949497F36001C1E13117F7F10007E
:1011F00027674545457D39003E7F4949497B320097
:10120000030301797D070300367F4949497F360092
:10121000266F4949497F3E00000000363600000035
:1012200000004076360000000000081C36634100D4
:10123000001414141414140000004163361C080038
:1012400000020159590F06003C4299A5A5B9221C7C
:101250007E7F1111117F7E007F7F4949497F3600D3
:101260003E7F4141416322007F7F4141417F3E00FB
:101270007F7F4949494941007F7F090909010100F0
:101280003E7F4141497B3A007F7F0808087F7F000D
:101290000000007F7F00000020604040407F3F0052
:1012A0007F7F081C366341007F7F40404040400004
:1012B0007F7F060C067F7F007F7F060C187F7F00F4
:1012C0003E7F4141417F3E007F7F1111111F0E0083
:1012D0003E7F414141FFBE007F7F1111117F6E00B3
:1012E000266F4949497B32000001017F7F010100DF
:1012F0003F7F4040407F3F000F1F3060301F0F0096
:101300007F7F301C307F7F0063771C081C77630071
:1013100000070F78780F07006171795D4F47430030
:1013200000007F7F414100000003060C1830600080
:10133000000041417F7F000000000C0603060C0006
:10134000808080808080808000205F01010000001C
:1013500000000000000000005E0000000000000629
:10136000000006000000247E24247E240000246B5C
:101370002A2A6B1200004626100864620000344AD4
:101380004A54205000000000000600000000000049
:101390003C42000000000000423C000000002A1C0B
:1013A0003E1C2A00000008083E080800000000401B
:1013B00030000000000008080808080800000000CD
:1013C00040000000000040201008040200003C62C1
:1013D000524A463C000040447E40400000006452B7
:1013E0005252524C000024424A4A4A3400003824E7
:1013F00022227E2000002E4A4A4A4A3200003C4AFD
:101400004A4A4A300000020262120A060000344AC8
:101410004A4A4A3400000C525252523C000000002A
:10142000240000000000004024000000000000082C
:1014300014220000000014141414141400000000FE
:101440002214080000000402520A040000001824BC
:101450005A5A241800007C121212127C00007E4A94
:101460004A4A4A3400003C424242422400007E4242
:101470004242423C00007E4A4A4A424200007E0A02
:101480000A0A020200003C424252523400007E0826
:101490000808087E000000427E4200000000204054
:1014A0004040403E00007E080808146200007E4074
:1014B0004040404000007E040808047E00007E0496
:1014C0000810207E00003C424242423C00007E1256
:1014D0001212120C00003C425262423C00007E128A
:1014E0001212324C0000244A4A4A4A3000000202DA
:1014F0007E02020000003E404040403E00001E20B0
:101500004040201E00007E201010207E000042245B
:10151000181824420000020478040200000042620D
:10152000524A46420000007E42420000000002048F
:10153000081020400000000042427E000000000031
:101540000402040000808080808080808000207EF3
:101550000102000000000000000000000000000088
:101560000000000000FCFC0000000000000D0D0069
:101570000000003C3C003C3C00000000000000007B
:10158000000060F8F860F8F86000030F0F030F0F19
:10159000030070F8C8FC88981000040C081F090F9D
:1015A00007001C149CE0701C0C000C0E03010E0ABA
:1015B0000E00C0E02020E0C00000060F09090F0E59
:1015C0000A000000003C3C00000000000000000099
:1015D000000000C0F0380C0400000001070E1810D5
:1015E000000000040C38F0C000000010180E0701C5
:1015F00000004040C0F0C040400000060301030668
:10160000000000C0C0F0F0C0C000000000030300F4
:10161000000000000000000000000000111F0F0784
:1016200000000080808080808000000000000000BA
:10163000000000000000000000000000040E0E0486
:101640000000000080C060381C000E070100000090
:101650000000F0F80C040CF8F00003070C080C076D
:101660000300001018FCFC0000000008080F0F0821
:101670000800181C0484C47C38000C0E0B090808F0
:1016800008000404446474DC8C00040C0808080F8F
:101690000700C0E03018FCFC0000010101010F0F41
:1016A00001007C7C642424E4C400040C0808080FB6
:1016B0000700F0F8CC4444C48000070F0C08080F62
:1016C0000700040404C4E43C1C0000000F0F0000E9
:1016D0000000B8FC444444FCB800070F0808080F99
:1016E000070078FC8484CCFCF800000808080C078C
:1016F000030000002070702000000000040E0E04A3
:10170000000000002070702000000000111F0F0773
:1017100000000080C0603018080000000103060CC3
:101720000800004040404040400000020202020227
:1017300002000008183060C0800000080C06030199
:101740000000181C0484C47C38000000000D0D004B
:101750000000F0F818D87878F000070F0C0B0A0A90
:101760000B00F0F88C8C8CF8F0000F0F0000000FCD
:101770000F0004FCFC4444FCB800080F0F08080FDD
:101780000700F8FC0C04041C1800070F0C08080ED6
:10179000060004FCFC0404FCF800080F0F08080F06
:1017A0000700FCFC4444440404000F0F0808080828
:1017B0000800FCFC4444440404000F0F0000000037
:1017C0000000F8FC0404041C1800070F0808090FA7
:1017D0000700FCFC404040FCFC000F0F0000000F25
:1017E0000F00000004FCFC0400000000080F0F08BC
:1017F00000000000000004FCFC00060E0808080FB2
:101800000700FCFCC0E0301C0C000F0F0001030EB1
:101810000C00FCFC0000000000000F0F0808080886
:101820000C00FCFC306030FCFC000F0F0000000FCF
:101830000F00FCFC70C080FCFC000F0F0000030FC9
:101840000F00F8FC040404FCF800070F0808080F58
:101850000700FCFC848484FC78000F0F000000006B
:101860000000F8FC040404FCF800070F080C0C1F2F
:101870001700FCFCC4C4C47C38000F0F0000030F29
:101880000C00387C444444DC9800060E0808080F1D
:101890000700000404FCFC0404000000000F0F001B
:1018A0000000FCFC000000FCFC00070F0808080F0B
:1018B00007003CFC800080FC3C000001070E070193
:1018C0000000FCFC000000FCFC00070F0C070C0FE4
:1018D00007000C3CF0C0F03C0C000C0F0300030FA1
:1018E0000C00001C7CE0E07C1C000000000F0F00DE
:1018F0000000040484C4643C1C000E0F090808089E
:10190000080000FCFC0404040000001F1F1010105D
:1019100000001C3860C080000000000000000107CB
:101920000E0000040404FCFC0000001010101F1F37
:1019300000002030180C18302000000000000000CB
:101940000000000000000000000010101010101037
:1019500010000000040C181000000000000000003F
:10196000000000A0A0A0A0E0C000070F0808040F1E
:101970000F00FCFC402020E0C0000F0F0408080FFF
:101980000700C0E0602020604000070F0C08080C32
:101990000400C0E0202040FCFC00070F0808040FF2
:1019A0000F00C0E0202020E0C000070F0909090D4A
:1019B000050080F8FC84848C0800000F0F000000F4
:1019C0000000C0E02020E0E02000153F2E2E2B3943
:1019D0001000FCFC402020E0C0000F0F0000000FB2
:1019E0000F00000040D8D80000000000080F0F08CA
:1019F00000000000000040D8D80018382020203F08
:101A00001F00FCFC80C0602000000F0F0103060CCB
:101A10000800000004FCFC0000000000080F0F0894
:101A20000000C0E060C060E0C0000F0F0001000FC8
:101A30000F00E0E0402020E0C0000F0F0000000F8A
:101A40000F00C0E0202020E0C000070F0808080FAA
:101A50000700E0E0402020E0C0003F3F0408080FFE
:101A60000700C0E0202040E0E000070F0808043F26
:101A70003F00E0E04020206040000F0F0000000029
:101A8000000040E0A02020604000040C09090B0E7B
:101A9000040040FCFC404040000000070F08080C18
:101AA0000400E0E0000000E0E000070F0808040F79
:101AB0000F00E0E0000000E0E00001070E080E0764
:101AC0000100E0E0000000E0E000070F0C070C0F51
:101AD000070060E0800080E060000C0E0301030E50
:101AE0000C00E0E0000000E0E00013372424223F77
:101AF0001F00202020A0E06020000C0E0B09080829
:101B000008000080B8FC4404040000000E1F1110FF
:101B10001000000000FCFC0000000000000F0F009F
:101B2000000000040444FCB88000001010111F0ED7
:101B30000000301818383030180000000000000095
:101B40000000000000090003020000040508000076
:101B5000000000000000000000005EBCE2613FDD0C
:101B600083C29C7E20A3FD1F41009D23BE46DB65F2
:101B7000F88C11AF32CA57E9740000000025002824
:101B8000002B0000000000240027002A00000000B5
:101B900000230026002900040404040404040402B1
:101BA000020202020203030303030302020301020F
:101BB00004081020408001020408102001020408DB
:101BC000102040804000773311241FBECFEFD8E0B3
:101BD000DEBFCDBF12E0A0E0B1E0E8E4F2E702C072
:101BE00005900D92A233B107D9F723E0A2E3B2E04A
:101BF00001C01D92AB39B207E1F71DE0C4EEDDE094
:101C000004C02197FE010E94FF36C33ED107C9F7E9
:101C10000E94781F0C9422390C940000CF92DF921E
:101C2000EF92FF920F931F93CF93DF9341155105CE
:101C300009F16A018C017B01C0E0D0E004C021966B
:101C4000CC16DD0669F0D7016D917D01D801ED91CB
:101C5000FC910190F081E02DC8010995892B79F75D
:101C6000CE01DF91CF911F910F91FF90EF90DF9008
:101C7000CF900895C0E0D0E0F3CF80E00895DC017C
:101C80001A96ED91FC911B9720E030E00994DC015D
:101C90001696ED91FC91179720E030E040E069E165
:101CA0000994DC011696ED91FC91179720E030E045
:101CB00040E068E109949A01DC011696ED91FC91EF
:101CC0001797462F67E10994EF92FF920F931F93A6
:101CD000CF93DF931F92CDB7DEB77C018B01D80184
:101CE0006C91673199F06831F0F06A31A8F16E3F7C
:101CF00059F5F8014181498369E2C7010E943F0E0D
:101D00000E5F1F4FD8016C91673169F7F80181812F
:101D10008983AE014F5F5F4F61E0C7010E945B0E98
:101D20000E5F1F4FDCCF653178F0F80141814983A8
:101D3000D7011696ED91FC91179720E030E0C7018E
:101D400009950E5F1F4FCBCF0F90DF91CF911F9161
:101D50000F91FF90EF9008950F5F1F4FD7011696D8
:101D6000ED91FC91179720E030E040E0C701099524
:101D7000B6CF462FDC011696ED91FC91179720E027
:101D800030E066E10994462FDC011696ED91FC9156
:101D9000179720E030E065E10994EF92FF920F93EE
:101DA0001F93CF93DF93EC01142F79016D3009F469
:101DB000B1C008F490C06E30C9F16F3009F044C072
:101DC0000E94510EF7010381000F000F000F8C8954
:101DD000080F60E4CE010E94C30E602F62956F7001
:101DE0006061CE010E94C30E602F6F70CE010E9411
:101DF000B90EF7016481606BCE010E94B90EF70144
:101E0000408151816281660F660F660FCE010E948C
:101E10005B0E1150A1F7CE010E94470E81E0DF91C9
:101E2000CF911F910F91FF90EF9008950E94510E56
:101E300061E8CE010E94C30E612FCE010E94B90E4F
:101E4000CE010E94470EEACF693009F456C06A30CD
:101E500009F04BC0EA85FB8520E030E040E068E215
:101E6000CE010995EE81FF8120E030E040E064E1A1
:101E7000CE01099541E06BE4CE010E943F0EE8815E
:101E8000F981448169E2CE010E943F0E40E06BE49B
:101E9000CE010E943F0EE881F981448169E2CE01C2
:101EA0000E943F0E41E06BE4CE010E943F0EE881AC
:101EB000F981458169E2CE010E943F0E60E271E046
:101EC000CE010E94640E81E0DF91CF911F910F91AE
:101ED000FF90EF9008956B3009F0B6CF41112EC0FE
:101EE0006BE171E00E94640E99CF80E0DF91CF91A9
:101EF0001F910F91FF90EF90089585E591E09983F0
:101F000088831C8A81E0DF91CF911F910F91FF9010
:101F1000EF900895411109C06FE071E00E94640ED6
:101F2000E881F98182898C8B79CF68E071E00E9429
:101F3000640EE881F98183898C8B70CF66E171E052
:101F40000E94640E6BCF611104C06FEF7FEFCB0175
:101F500008956A30D1F3FC01218D21110CC06C3F32
:101F600028F125E0218F617070E0FC01738B628B9A
:101F70006EEF7FEFECCF4FEF420FFC01418F2289D4
:101F8000338900243695279507943695279507942D
:101F9000322F202D6F73F901E62BBF01FC01738BEB
:101FA000628B4423A1F26EEF7FEFD1CF683F28F020
:101FB00024E0FC01218F6370D7CF603F28F023E03D
:101FC000FC01218F6770D0CF603E28F022E0FC0139
:101FD000218F6F70C9CF603C28F021E0FC01218F78
:101FE0006F71C2CF70E0B3CF611103C08FEF9FEF6D
:101FF00008956A30D9F3862F90E00895CF93DF9348
:10200000EC01683109F4F6C0A8F5643109F485C023
:102010006731A1F580919903882309F411C150E03B
:102020004115510519F180919803F901420F531F91
:1020300021E030E008C03093090320930803319673
:10204000E417F50799F08032B0F7908180919703FB
:10205000A82FB0E0A958BC4F9C938F5F8093970343
:10206000809398033196E417F50769F781E0DF91D3
:10207000CF910895693131F06032C1F380E0DF9192
:10208000CF910895409198034132E8F58091BF02C5
:102090008111FCCFC091780282E08093BF0281E081
:1020A0008093C0028FEF8093BD021092E2024093B2
:1020B000E102442351F0415050E04F5F5F4F67E72A
:1020C00073E081EC92E00E9412391092E302809159
:1020D000E302CC0FC82BC093E3028091BE02813093
:1020E00009F4EDC085EE8093BC008091BF02823080
:1020F000E1F38091BD028F3F31F08091BD028032CB
:1021000011F08091BD0210929703109298031092E3
:10211000990381E0DF91CF9108958C859D85AE85EF
:10212000BF85892B8A2B8B2B71F4E881F981A585DA
:10213000B0E020EA36E841E050E00E9405376C87C5
:102140007D878E879F8710929B0210929A02109231
:102150009703109298031092BF0281E08093C0020F
:102160001092BE02E4E5FBE18491E0ECFBE1949186
:10217000E9EAFBE1E491EE2379F0811190C0F0E00F
:10218000EE0FFF1FE758F44EA591B4918FB7F89466
:10219000EC91E92BEC938FBFE5E5FBE18491E1EC59
:1021A000FBE19491EAEAFBE1E491EE2379F08111FD
:1021B00063C0F0E0EE0FFF1FE758F44EA591B49115
:1021C0008FB7F894EC91E92BEC938FBF8091B90015
:1021D0008E7F8093B9008091B9008D7F8093B90084
:1021E00080E28093B80085E48093BC0081E0DF91B9
:1021F000CF9108952C853D854E855F8560E072E125
:102200008AE790E00E94DD36DA01C9014097A10912
:10221000B109B695A795979587958093B8008E8953
:1022200090E09595879591E090939903809378023B
:10223000109297031092980381E0DF91CF91089557
:10224000413208F013CF8091BF02843009F00ECFE5
:102250004093BC02442309F409CFF901ACE9B2E090
:102260008FEF840F90E00196820F931F21912D93A1
:10227000E817F907D9F7FACE843009F462C0B0F153
:10228000883009F458C0893009F44FC0853009F00E
:1022900090CF809180008F7D809380008ACF8430A2
:1022A00071F1D8F08830D9F1893099F1853009F091
:1022B00066CF809180008F7D8093800060CF1092E8
:1022C000BE028091E3028093BB008091BC0083FD3D
:1022D000F8CF85EC8093BC0008CF8230C1F1833009
:1022E00009F04DCF84B58F7D84BD49CF823069F030
:1022F000833009F05ECF84B58F7D84BD5ACF809145
:1023000080008F77809380003ACF84B58F7784BD2B
:1023100050CF8091B0008F7D8093B00030CF8091FE
:10232000B0008F778093B0002ACF8091B0008F7D6E
:102330008093B0003ECF8091B0008F778093B00043
:1023400038CF809180008F778093800032CF84B522
:102350008F7784BD14CF0E940D39CF93DF931F92E6
:10236000CDB7DEB76983BE016F5F7F4F0E945B1BF5
:102370000F90DF91CF910895EF92FF921F93CF932B
:10238000DF93EC01162F7A01E885F98520E030E033
:1023900040E068E1099560E4CE010E94AD11E88556
:1023A000F9859701412F67E1CE010995E885F98507
:1023B00020E030E040E069E1CE01DF91CF911F9154
:1023C000FF90EF900994EF92FF920F931F93CF939A
:1023D0007C01C42F8901663109F47BC098F0683113
:1023E00041F008F45AC06931E1F580917902811118
:1023F0007AC01092790281E0CF911F910F91FF90E6
:10240000EF9008956431A1F1653159F58091790219
:10241000882359F0D7011896ED91FC91199720E087
:1024200030E040E069E1C7010995D7011896ED91C8
:10243000FC91199720E030E040E068E1C701099580
:1024400060E0C7010E94AD116C2FC7010E94AD1161
:1024500081E080937902CF911F910F91FF90EF90CF
:10246000089580E0CF911F910F91FF90EF90089514
:10247000FC0186898F3F11F488E7868BD701189677
:10248000ED91FC91199798014C2F64E1C701CF9110
:102490001F910F91FF90EF9009948091790288230A
:1024A00041F02DC068E1C7010E94BC11C851085E0F
:1024B0001F4FA801C931B0F76C2FC7010E94BC1192
:1024C0001092790281E0CF911F910F91FF90EF90D0
:1024D0000895642F0E94AD1181E0CF911F910F915B
:1024E000FF90EF900895D7011896ED91FC91199700
:1024F00020E030E040E069E1C70109957ACFD701DB
:102500001896ED91FC91199720E030E040E069E1E8
:10251000C7010995CECFCF92DF92EF92FF920F9332
:102520001F93CF93DF93C62ED12CF601B897E632D6
:10253000F10578F1603408F429C16F73FC01E60FEE
:10254000F11D278D2F3F09F42EC0603108F446C1DC
:1025500030E0F901EE5BF44E4491F901E255F44E9E
:102560005491F901E956F44EE491EE2369F04111DA
:102570005BC1F0E0EE0FFF1FE357F44EA591B4915D
:102580002C91252331E009F430E0FC01328F81E009
:102590000BC0EC5CFF4F0C94FF36433020F486E018
:1025A00090E00197F1F781E0DF91CF911F910F91BA
:1025B000FF90EF90DF90CF900895DC015F9680E070
:1025C0001DC09491F901E956F44E2491222399F00B
:1025D00030E0220F331FF901ED57F44EC591D4912D
:1025E000F901E758F44E259134912FB7F894E8811A
:1025F000E92BE8832FBF8F5F8631A9F22D912F3F02
:10260000D1F330E0F901E255F44E8031D0F244913B
:10261000F901E956F44E2491222369F330E0220FA8
:10262000331FF901ED57F44E65917491F901E758A4
:10263000F44EC591D4912FB7F894FB019081342FBB
:10264000309593239083E881E42BE8832FBFD3CF89
:10265000042F10E020E030E09FB7F894409173031E
:1026600050917403609175037091760386B5A89BB1
:1026700006C08F3F21F04F5F5F4F6F4F7F4F9FBF6F
:10268000762F652F542F4427480F511D611D711D52
:10269000440F551F661F771F440F551F661F771F76
:1026A000440F551F661F771F0115110521053105C0
:1026B00009F479CFFFB7F894809173039091740374
:1026C000A0917503B0917603E6B5A89B05C0EF3FD6
:1026D00019F00196A11DB11DFFBFBA2FA92F982F88
:1026E00088278E0F911DA11DB11D880F991FAA1F4C
:1026F000BB1F880F991FAA1FBB1F880F991FAA1FF6
:10270000BB1F841B950BA60BB70B883E9340A105FE
:10271000B10580F2015011092109310948515C4F7E
:102720006F4F7F4F011511052105310519F63BCF7C
:102730006F73DC01A60FB11D5F968C915F974111FD
:1027400027C0282F30E0F901E255F44E9491F901A9
:10275000E956F44E24912223A9F030E0220F331FD2
:10276000F901ED57F44EC591D491F901E758F44EB3
:10277000259134918FB7F894E881E92BE8838FBFD6
:102780005F968C910E940C1B81E00ECF80E00CCFF5
:1027900090E0FC01E255F44E2491FC01E956F44E20
:1027A0008491882309F4FFCE90E0880F991FFC01E3
:1027B000ED57F44EC591D491FC01E758F44EA59124
:1027C000B4919FB7F8948881322F30958323888302
:1027D000EC91E22BEC939FBF81E0E6CE822F90E05C
:1027E000FC01EE5BF44E2491FC01E255F44E349171
:1027F000FC01E956F44E8491882309F4D4CE2111CA
:1028000026C0E82FF0E0EE0FFF1FE758F44EA59129
:10281000B4919FB7F8948C91411116C030958323E1
:102820008C939FBF81E0C0CE443051F100F148301D
:10283000B9F1493079F1453009F09BCE2091800003
:102840002F7D2093800095CE382B3C93EACF243007
:10285000B1F160F1283009F442C02930D1F12530BE
:1028600081F6909180009F7D90938000CACF423086
:1028700069F0433009F07DCE24B52F7D24BD79CE9B
:10288000209180002F772093800073CE24B52F777E
:1028900024BD6FCE2091B0002F7D2093B00069CE73
:1028A0002091B0002F772093B00063CE223069F0E2
:1028B000233009F0A6CF94B59F7D94BDA2CF90910F
:1028C00080009F77909380009CCF94B59F7794BDB4
:1028D00098CF9091B0009F7D9093B00092CF90914F
:1028E000B0009F779093B0008CCF0F931F93CF933E
:1028F000DF93EC01D90128813981F90114913196D6
:102900008491319654913196E491411718F08417CF
:1029100008F041C088E0FD0111928A95E9F7FB01BA
:102920008081882399F18C9180958C9311968C915C
:102930001197809511968C93119712968C911297FE
:10294000809512968C93129713968C91139780957D
:1029500013968C93139714968C91149780951496D4
:102960008C93149715968C911597809515968C934A
:10297000159716968C911697809516968C931697A8
:1029800017968C911797809517968C93DF91CF911E
:102990001F910F910895842F90E0811B91095E9FF4
:1029A000E02D1124E89FA001E99F500D1124400F54
:1029B000511D440F551F440F551F440F551FFA0159
:1029C0003496E20FF31F24912C93CA010596E881F7
:1029D000F981E80FF91FE4911196EC931197019694
:1029E000E881F981E80FF91FE4911296EC931297B0
:1029F0000196E881F981E80FF91FE4911396EC93B1
:102A000013970196E881F981E80FF91FE491149674
:102A1000EC9314970196E881F981E80FF91FE4918E
:102A20001596EC9315970196E881F981E80FF91F47
:102A3000E4911696EC931697455F5F4FE881F98114
:102A4000E40FF51FE4911796EC93179768CF2F9238
:102A50003F924F925F926F927F928F929F92AF922E
:102A6000BF92CF92DF92EF92FF920F931F93CF937B
:102A7000DF93CDB7DEB762970FB6F894DEBF0FBE17
:102A8000CDBFDC016A3009F47AC054968D919C91D7
:102A90005597FC01329624912A8BDA964C90DA975E
:102AA000D9962C91D9972F875D0124E0A20EB11CF5
:102AB0002491319684912F84220E840D888B4D01B0
:102AC00084E1880E911C3D0199E1690E711C8F858E
:102AD0008F5F281608F450C0298B362E6D011E8694
:102AE000CE0101967C015E841F85052D9701432D43
:102AF000B301C4010E9475141C874D8691E09B8729
:102B0000FA86E986D6011896ED91FC9119979E01F7
:102B1000275F3F4F41E06FE0C501099553941F5F68
:102B2000121518F34394B989EE85BE0FBE87F88954
:102B30004F16C8F2D601D9968C91BA898B0FF6013F
:102B400081AF81E090E062960FB6F894DEBF0FBED1
:102B5000CDBFDF91CF911F910F91FF90EF90DF904C
:102B6000CF90BF90AF909F908F907F906F905F902D
:102B70004F903F902F900895E1E0E98BAECF5496AF
:102B8000ED91FC9155973396E491DA968C91DA9712
:102B9000E80FDA96EC93DA97D9961C92D2CF2F925F
:102BA0003F924F925F926F927F928F929F92AF92DD
:102BB000BF92CF92DF92EF92FF920F931F93CF932A
:102BC000DF93CDB7DEB769970FB6F894DEBF0FBEBF
:102BD000CDBF7C015C8B4B8B452B09F4B7C06F8B51
:102BE000788F1E8A1D8A4C0124E0820E911C2C01D4
:102BF00034E1430E511C1C0189E1280E311CDE0119
:102C000011966D0177247394D701ED91FC91019099
:102C1000F081E02DAF89B88D6D90B88FAF8BB5E1A5
:102C2000E732FB0709F08EC0EAE06E1609F474C0C3
:102C3000F70184899589FC0132962491298FD70167
:102C4000DA96AC90DA97D996BC91B88B24913196EC
:102C50008491B20FBE878A0D898B88898F5FB817E0
:102C600008F46DC02A8B1F86BF8418890B2D96012E
:102C7000462DB101C2010E9475141C87AD867B866A
:102C8000DA86C986D7011896ED91FC9119979E01B5
:102C9000275F3F4F41E06FE0C4010995B3941F5F88
:102CA000BE851B1718F3A394EA89FF85EF0FEF8702
:102CB0002989A216C8F2D701D9968C91B98D8B0FAC
:102CC000F70181AF81E090E02D893E89280F391FFF
:102CD0003E8B2D8B8B899C8901979C8B8B8B892BB1
:102CE00009F092CFC90169960FB6F894DEBF0FBE06
:102CF000CDBFDF91CF911F910F91FF90EF90DF90AB
:102D0000CF90BF90AF909F908F907F906F905F908B
:102D10004F903F902F900895D7015496ED91FC91DC
:102D200055973396E491DA968C91DA97E80FDA9614
:102D3000EC93DA97D9961C9281E090E0C5CFE1E060
:102D4000EA8B91CF662DC7010995BECF1E8A1D8AD9
:102D50008D899E89C8CF089581E090E030919B02D3
:102D600020919A02321710F480E090E091958195BD
:102D7000910908954F925F927F928F929F92AF92A6
:102D8000BF92CF92DF92EF92FF920F931F93CF9358
:102D9000DF93CDB7DEB729970FB6F894DEBF0FBE2D
:102DA000CDBFE0911803F091190340810180F281B9
:102DB000E02DF8942181542F509525232183789478
:102DC0003CE702C03150F9F020812423D9F3F89474
:102DD0002281252322832181242B21837894ACEB2B
:102DE000B3E01197F1F7F894218152235183A8E8B9
:102DF000B0E01197F1F720817894E0E3F3E03197A8
:102E0000F1F74223B9F080E029960FB6F894DEBFBF
:102E10000FBECDBFDF91CF911F910F91FF90EF902B
:102E2000DF90CF90BF90AF909F908F907F905F90FA
:102E30004F9008957C01009118031091190365E5E6
:102E4000C8010E94831D6701470188E0880E911C1C
:102E50006EE770E046E050E080E1E82EF12C9AE663
:102E6000492E512CD6019D916D0128E030E081E082
:102E70001CC0F80170800180F281E02DF894B280CE
:102E8000A72CA094BA20B282B180B728B182D70112
:102E90001197F1F7B280B728B2827894F201319796
:102EA000F1F7880F2150310901F1E92FE82309F7E3
:102EB000D8017C901196ED91FC911297F894B28014
:102EC000A72CA094BA20B282B180B728B182DB01CE
:102ED0001197F1F7B280B728B2827894FA0131974E
:102EE000F1F7880F2150310901F7F894D8011196B4
:102EF000ED91FC91129791818C918095892381832A
:102F00001196ED91FC91129792818C918095892375
:102F100082837894C814D90409F0A4CF6EEB809111
:102F20001803909119030E94831D8E010F5F1F4F9C
:102F30007E01BAE0EB0EF11C62E070E040E150E08F
:102F400026E630E0E0911803F0911903B080A181EA
:102F5000B281F89411968C9111978B2911968C93CC
:102F600011971296DC901297AB2CA094DA2012964F
:102F7000DC921297CB010197F1F71196DC90119733
:102F80008A2D8D2111968C931197CA010197F1F723
:102F90008C917894D9011197F1F79B2D9823AA244D
:102FA000A394911101C0A12CB080A181B281F894A9
:102FB00011969C9111979B2911969C9311971296AB
:102FC000DC9012979B2C9094D9201296DC92129749
:102FD000CB010197F1F71196DC901197992D9D2166
:102FE00011969C931197CA010197F1F79C917894DF
:102FF000D9011197F1F79B2119F09A2D9260A92E12
:10300000B080A181B281F89411969C9111979B296F
:1030100011969C9311971296DC9012979B2C90948A
:10302000D9201296DC921297CB010197F1F71196F5
:10303000DC901197992D9D2111969C931197CA01AF
:103040000197F1F79C917894D9011197F1F79B21A1
:1030500019F09A2D9460A92EB080A181B281F894C4
:1030600011969C9111979B2911969C9311971296FA
:10307000DC9012979B2C9094D9201296DC92129798
:10308000CB010197F1F71196DC901197992D9D21B5
:1030900011969C931197CA010197F1F79C9178942E
:1030A000D9011197F1F79B2119F09A2D9860A92E5B
:1030B000B080A181B281F89411969C9111979B29BF
:1030C00011969C9311971296DC9012979B2C9094DA
:1030D000D9201296DC921297CB010197F1F7119645
:1030E000DC901197992D9D2111969C931197CA01FF
:1030F0000197F1F79C917894D9011197F1F79B21F1
:1031000019F09A2D9061A92EB080A181B281F89416
:1031100011969C9111979B2911969C931197129649
:10312000DC9012979B2C9094D9201296DC921297E7
:10313000CB010197F1F71196DC901197992D9D2104
:1031400011969C931197CA010197F1F79C9178947D
:10315000D9011197F1F79B2119F09A2D9062A92EB0
:10316000B080A181B281F89411969C9111979B290E
:1031700011969C9311971296DC9012979B2C909429
:10318000D9201296DC921297CB010197F1F7119694
:10319000DC901197992D9D2111969C931197CA014E
:1031A0000197F1F79C917894D9011197F1F79B2140
:1031B00019F09A2D9064A92EA0810180F281E02D52
:1031C000F89491819A2B9183B281BA2EB094BB214D
:1031D000B283CB010197F1F7B1819B2D9B239183A2
:1031E000CA010197F1F790817894F9013197F1F7CD
:1031F0009A2319F09A2D9068A92ED801AD928D01CD
:10320000AE15BF0509F09ECEE0911803F0911903A9
:1032100020810180F281E02DF8948181322F309558
:103220008323818378949CE703C0915009F4EBCD0C
:1032300080818223D1F3F8948281832382838181E8
:10324000822B818378948CEB93E00197F1F7F894CB
:1032500081813823318388E890E00197F1F78081FC
:103260007894E0E3F3E03197F1F7282309F0CBCD30
:103270008981E82FEF70F0E0E75AF44E949182953F
:103280008F70E82FF0E0E759F44EE491E9278A8146
:103290009E2F9827E92FEF70F0E0E75AF44E8491C3
:1032A00092959F70E92FF0E0E759F44EE491E827FA
:1032B0008B818E27E82FEF70F0E0E75AF44E94915F
:1032C00082958F70E82FF0E0E759F44EE4919E2745
:1032D0008C819827E92FEF70F0E0E75AF44E849143
:1032E00092959F70E92FF0E0E759F44EE4918E2714
:1032F0002D818227E82FEF70F0E0E75AF44E949189
:1033000082958F70E82FF0E0E759F44EE491E927B9
:103310008E818E27E82FEF70F0E0E75AF44E9491FB
:10332000E82FE295EF70F0E0E759F44EE4919E2724
:103330008F819827E92FEF70F0E0E75AF44E8491DF
:1033400092959F70E92FF0E0E759F44EE491E82759
:1033500088858E27E82FEF70F0E0E75AF44E9491BD
:1033600082958F70E82FF0E0E759F44EE491E92759
:1033700089858E1348CD2F3379F048F02F3529F009
:103380002F3709F040CD8CE03FCD8BE03DCD2F3184
:1033900009F039CD89E038CD8AE036CD2F923F92C1
:1033A0004F925F926F927F928F929F92AF92BF9255
:1033B000CF92DF92EF92FF920F931F93CF93DF9301
:1033C000EC018B018D858823B9F01B861D861C8638
:1033D00080E0DF91CF911F910F91FF90EF90DF90F0
:1033E000CF90BF90AF909F908F907F906F905F90A5
:1033F0004F903F902F9008952881E981FA81F894A9
:103400008181322F30958323818378949CE702C099
:103410009150D9F280818223D9F3F8948281832359
:1034200082838181822B818378948CEB93E0019756
:10343000F1F7F89481813823318388E890E001978F
:10344000F1F780817894E0E3F3E03197F1F72823F6
:1034500009F0BBCF60EFCE010E94831D81E0F12C0B
:10346000812CEE24E39462E070E020E130E046E657
:1034700050E09AE6692E712CEEE72E2E312CF6E004
:10348000AF2EB12C2AC0442009F47EC0FE01EF0DFE
:10349000F11D9381D82ED0949D2193839881E98149
:1034A000FA81F894D280C92EC094DC20D282D180D7
:1034B000D92AD182D1011197F1F7D2809D29928327
:1034C0007894F5013197F1F7E394880F11F4F394B0
:1034D00081E0B7E0BF1508F472C09881E981FA81F4
:1034E000F894D180D92AD182D280992E9094D92073
:1034F000D282DB011197F1F7D1809D209182D90111
:103500001197F1F790807894FA013197F1F748809C
:10351000E981FA81F894D180D428D182D280542CC8
:103520005094D520D282DB011197F1F7D1805D2034
:103530005182D9011197F1F7E0814E227894FA0176
:103540003197F1F7992109F49ECF411038C0FE015F
:10355000EF0DF11D9381982B93839880E981FA8177
:10356000F8949281D92CD0949D21928391819929AC
:103570009183D9011197F1F79281992992837894D7
:10358000F3013197F1F7A0CF9B85E91668F4FE01AE
:10359000EF0DF11D9381D92ED822E9F6A8E0AE15E2
:1035A00008F0EC868E2C76CFDD24D3949E11D12C9E
:1035B000FE01EF0DF11D9381D110CDCFEFCFE0E4EF
:1035C000EE1508F002CF8B86882019F18B818823B5
:1035D00009F4FBCED8018C938C8111968C931197B2
:1035E0008D8112968C9312978E8113968C931397DC
:1035F0008F8114968C931497888515968C931597C4
:10360000898516968C9316978A8517968C9381E0F8
:10361000E0CE81E08D87DACF90E0FC01EE5BF44EE6
:103620002491FC01E255F44E3491FC01E956F44E2C
:103630008491882391F0211111C0E82FF0E0EE0F62
:10364000FF1FE758F44EA591B4919FB7F8948C9161
:10365000E32FE095E823EC939FBF0895243029F1F0
:1036600060F02830E1F02930A1F0253031F7909159
:1036700080009F7D90938000E0CF223031F0233096
:10368000E1F694B59F7D94BDD8CF94B59F7794BD56
:10369000D4CF9091B0009F7D9093B000CECF909109
:1036A000B0009F779093B000C8CF909180009F7733
:1036B00090938000C2CF9B01DC011896ED91FC91A4
:1036C000199741E067E109941F920F920FB60F928C
:1036D00011242F933F934F935F936F937F938F9317
:1036E0009F93AF93BF93EF93FF938091B900E82F1F
:1036F000E87F8E2F90E0893C910568F5FC01E65A41
:10370000FF4F0C94FF3684E08093BF021092E402D6
:103710001092BC02E0E0F0E009958091BC028111BA
:1037200005C081E08093BC0210929C02E091E4020B
:1037300081E08E0F8093E402F0E0E456FD4F80813B
:103740008093BB009091E4028091BC029817C8F46A
:1037500085EC8093BC00FF91EF91BF91AF919F9159
:103760008F917F916F915F914F913F912F910F902A
:103770000FBE0F901F90189580910503803208F4BA
:10378000A8C085E88093BC00E6CFE091E20281E02A
:103790008E0F8093E2028091BB00F0E0EF53FD4F6B
:1037A00080839091E2028091E102981750F7D0CF88
:1037B00080E38093BD0285ED8093BC008091BC00C6
:1037C00084FDFCCF1092BF02C6CF88E38093BD0278
:1037D00085EC8093BC001092BF02BDCFE091E20265
:1037E00081E08E0F8093E2028091BB00F0E0EF5306
:1037F000FD4F80838091C002882309F47AC085ED53
:103800008093BC008091BC0084FDFCCFDBCF83E0C3
:103810008093BF021092050385EC8093BC009BCF80
:103820001092BD0285ED8093BC008091BC0084FDA8
:10383000FCCFC8CF8091E3028093BB0085EC8093DE
:10384000BC0089CF9091E2028091E102981708F4C0
:1038500059C08091C002882309F44BC085ED809344
:10386000BC008091BC0084FDFCCFACCF80E2809393
:10387000BD0285ED8093BC008091BC0084FDFCCF2F
:10388000A1CF85EC8093BC001092BF02809105030C
:10389000803230F4E0910503F0E0EB51FD4F1082EF
:1038A0006091050370E085EE92E0E0E0F0E00995BC
:1038B0001092050350CF85EC8093BC001092BF029C
:1038C0004ACF85ED8093BC008091BC0084FDFCCF85
:1038D00079CFE091050381E08E0F809305038091FD
:1038E000BB00F0E0EB51FD4F808385EC8093BC0082
:1038F00032CF81E08093BE0284EA8093BC001092B4
:10390000BF0229CFE091E20281E08E0F8093E202B4
:10391000F0E0EF53FD4F80818093BB0085EC8093F6
:10392000BC0019CFCF92DF92FF920F931F93CF93DA
:10393000DF9300D000D01F92CDB7DEB78C011C8280
:1039400081E08B837A836983F801A081B1815196EC
:10395000FC9051971D8203C0F801A081B181F8014C
:10396000C480D5809E012F5F3F4F50964C916FE0F1
:10397000C801F60109958D818F5F8D838F1560F3E6
:103980000F900F900F900F900F90DF91CF911F919C
:103990000F91FF90DF90CF90089590E0FC01E255E9
:1039A000F44E2491FC01E956F44E8491882399F059
:1039B00090E0880F991FFC01ED57F44EA591B4914A
:1039C000FC01E758F44E859194918FB7F894EC91EF
:1039D000E22BEC938FBF08952F923F924F925F920C
:1039E0006F927F928F929F92AF92BF92CF92DF920F
:1039F000EF92FF920F931F93CF93DF93CDB7DEB774
:103A00002F970FB6F894DEBF0FBECDBF382E6E874E
:103A1000E0913A03F0913B03329624912F87109264
:103A200043034A01212CCE0101966C017724739443
:103A3000F40161914F01E0912C03F0912D038AE292
:103A400093E009958F3FFFEF9F0709F442C08E3F37
:103A50002FEF920769F3B82E80913A0390913B03C0
:103A6000FC013296449031965490A32CA40C8E8580
:103A7000580E81E0830DA81610F444244394EE847C
:103A8000612CF62C132D0F2D96014B2D6FE373E057
:103A90008AE393E00E9475141C87ED867B86DA86A4
:103AA000C986E0912E03F0912F039E01275F3F4FBF
:103AB00041E06FE08AE293E00995F3941F5F1A15E5
:103AC00010F3E394640CE514E0F29F85390E23941F
:103AD000AFCF822D2F960FB6F894DEBF0FBECDBFAD
:103AE000DF91CF911F910F91FF90EF90DF90CF90DA
:103AF000BF90AF909F908F907F906F905F904F900E
:103B00003F902F9008958F929F92AF92BF92CF9245
:103B1000DF92EF92FF920F931F93CF93DF93DC011D
:103B200048E050E021E00EE710E086E0882E912C7E
:103B300090E1C92ED12C3AE6E32EF12C1CC08C91D9
:103B40001196ED91FC911297F8949281382F30954F
:103B5000932392839181982B9183E6012197F1F72A
:103B60009281892B82837894C7010197F1F7220F04
:103B700041505109F9F0862F822309F79C91119643
:103B8000ED91FC911297F8948281392F309583231F
:103B900082838181892B8183E8012197F1F78281DA
:103BA000982B92837894C4010197F1F7220F41502A
:103BB000510909F7F8941196ED91FC9112979181B2
:103BC0008C918095892381831196ED91FC911297B8
:103BD00092818C918095892382837894DF91CF9113
:103BE0001F910F91FF90EF90DF90CF90BF90AF901B
:103BF0009F908F90089590919B0280919A029817C0
:103C000058F4E92FF0E0E658FD4F208130E09F5F47
:103C100090939B02C90108952FEF3FEFFBCF809156
:103C20009A0290E020919B02821B91090895FC0169
:103C3000909199039923D1F090919803903238F0A4
:103C400081E090E09383828380E090E0089580910A
:103C50009703E82FF0E0E958FC4F60838F5F809373
:103C600097038093980381E090E008958091BF02CC
:103C7000843019F081E090E0089581E08093BC02E7
:103C800060939C0281E090E008959F92AF92BF9272
:103C9000CF92DF92EF92FF920F931F93CF93DF9318
:103CA0008C016A0180919903882309F44EC0411563
:103CB000510591F1EB017B01E40EF51E99249394DB
:103CC000AA24A394B12C06C0F801B382A282CE1517
:103CD000DF0511F1D801ED91FC910190F081E02D0B
:103CE0006991BEE1E731FB0769F58091990388236B
:103CF00001F180919803803238F780919703E82F83
:103D0000F0E0E958FC4F60838F5F809397038093C6
:103D10009803CE15DF05F1F6C601DF91CF911F9113
:103D20000F91FF90EF90DF90CF90BF90AF909F905A
:103D300008958091BF02843051F69092BC02609346
:103D40009C02C5CFC8010995C2CF413228F7909196
:103D5000BF02943009F74093BC024423E9F2DB012F
:103D6000ECE9F2E02FEF240F30E023563D4F8D9128
:103D70008193E217F307D9F7CFCF0F931F938B01EE
:103D80009C019FB7F8944091730350917403609124
:103D900075037091760386B5A89B06C08F3F21F00E
:103DA0004F5F5F4F6F4F7F4F9FBF762F652F542F11
:103DB0004427480F511D611D711D440F551F661F7B
:103DC000771F440F551F661F771F440F551F661F2F
:103DD000771F0115110521053105E9F1FFB7F894A9
:103DE0008091730390917403A0917503B091760351
:103DF000E6B5A89B05C0EF3F19F00196A11DB11DC6
:103E0000FFBFBA2FA92F982F88278E0F911DA11DB4
:103E1000B11D880F991FAA1FBB1F880F991FAA1FCA
:103E2000BB1F880F991FAA1FBB1F841B950BA60BD6
:103E3000B70B883E9340A105B10580F201501109EE
:103E40002109310948515C4F6F4F7F4F0115110512
:103E50002105310519F61F910F9108951F920F92B8
:103E60000FB60F9211242F933F938F939F93AF938D
:103E7000BF9380916F0390917003A0917103B091F3
:103E8000720330919A0326E0230F2D3768F129E859
:103E9000230F0396A11DB11D20939A0380936F03F6
:103EA00090937003A0937103B09372038091730396
:103EB00090917403A0917503B09176030196A11DB2
:103EC000B11D8093730390937403A0937503B09313
:103ED0007603BF91AF919F918F913F912F910F905A
:103EE0000FBE0F901F9018950296A11DB11DD4CF43
:103EF000CF93DF93CDB7DEB76F970FB6F894DEBFE1
:103F00000FBECDBF789484B5826084BD84B58160D6
:103F100084BD85B5826085BD85B5816085BD809194
:103F20006E00816080936E0010928100809181000C
:103F30008260809381008091810081608093810004
:103F4000809180008160809380008091B1008460C6
:103F50008093B1008091B00081608093B000809127
:103F60007A00846080937A0080917A0082608093E6
:103F70007A0080917A008E7F80937A0080917A0017
:103F8000806880937A001092C100E0912E03F09136
:103F90002F0320E030E040E06AE08AE293E00995F8
:103FA000CE0101969B8B8A8B88E0AA89BB891D92E2
:103FB0008A95E9F7BE016F5F7F4F8AE293E00E9426
:103FC000921CE0912E03F0912F0320E030E040E0BE
:103FD0006BE08AE293E0099589E00E94CD1C89E0BC
:103FE0000E940C1B88E00E94CD1CEAE4FBE1849156
:103FF000E6EBFBE19491EFE9FBE1E491EE2379F04C
:1040000081110FC1F0E0EE0FFF1FE758F44EA591AC
:10401000B4912FB7F8948C91892B8C932FBFECEB34
:10402000FBE12491E5EAFBE184918823C9F090E06B
:10403000880F991FFC01ED57F44EA591B491875854
:10404000944EFC01459154913FB7F8949C91822F76
:10405000809598239C93FA019081892380833FBFA8
:1040600081E10E94CD1C8FE00E94CD1C8FE00E9458
:104070000C1B64E670E080E090E00E94BD1EE091C1
:104080001803F09119031386158614861286339649
:1040900087E0DF011D928A95E9F7109216031092CE
:1040A0001703FE0139962F01F0E1EF2EF12CAAE65D
:1040B0006A2E712CBEE78B2E912C16E0A12EB12C0E
:1040C00002E0C02ED12CBE016F5F7F4F809118039C
:1040D000909119030E94CE19882309F4BAC029814E
:1040E000E22FEF70F0E0E75AF44E8491E22FE29570
:1040F000EF70F0E0E759F44EE491982F9E278A8103
:104100008927E82FEF70F0E0E75AF44E9491E82FFA
:10411000E295EF70F0E0E759F44EE4919E278B8131
:104120008927E82FEF70F0E0E75AF44E9491E82FDA
:10413000E295EF70F0E0E759F44EE4919E278C8110
:104140008927E82FEF70F0E0E75AF44E9491E82FBA
:10415000E295EF70F0E0E759F44EE4919E278D81EF
:104160008927E82FEF70F0E0E75AF44E9491E82F9A
:10417000E295EF70F0E0E759F44EE4919E278E81CE
:104180008927E82FEF70F0E0E75AF44E9491E82F7A
:10419000E295EF70F0E0E759F44EE4919E278F81AD
:1041A0008927E82FEF70F0E0E75AF44E9491E82F5A
:1041B000E295EF70F0E0E759F44EE491892F8E27F5
:1041C0009885981380CF80911203882311F40C9462
:1041D000D42810911303203111F40C94C828CE0177
:1041E00001960E94BA16811710F00C94B92980919B
:1041F0001303998180931303809116038F5F80933B
:104200001603983241F010F00C949928903119F06F
:10421000923209F058CF809117038F5F8093170374
:1042200052CF843011F40C94BC2810F40C94B128B3
:10423000883011F40C94AA28893011F40C94A32826
:10424000853009F0DFCE809180008F7D80938000E3
:10425000D9CE64E670E080E090E00E94BD1E8091BF
:1042600000019091010188969093010180930001D3
:1042700089E493E190933B0380933A0384EF9FE0BA
:1042800090932D0380932C0345E851E060E082E099
:104290000E94EC1CA4EFBFE0B0932D03A0932C036D
:1042A00042E951E061E081E00E94EC1CE4EFFFE0B4
:1042B000F0932D03E0932C0341EA51E062E080E0AB
:1042C0000E94EC1C74E4C72E71E1D72ED0923B0300
:1042D000C0923A0384EF9FE090932D0380932C03C8
:1042E00042EB51E064E083E00E94EC1CA4EFBFE0ED
:1042F000B0932D03A0932C034DEB51E065E083E0D8
:104300000E94EC1C68E873E180E090E00E94BD1E12
:1043100088E0EA89FB8911928A95E9F7BE016F5F0F
:104320007F4F8AE293E00E94921C10925F031092EA
:10433000600305E010E0E8E0FE2ED0923B03C0925F
:104340003A0384EF9FE090932D0380932C0348EC75
:1043500051E060E080E00E94EC1CA4EFBFE0B0936D
:104360002D03A0932C0349ED51E062E082E00E940E
:10437000EC1CE4EFFFE0F0932D03E0932C0347EEF9
:1043800051E064E080E00E94EC1C84EF9FE0909399
:104390002D0380932C0348EF51E066E080E00E94FB
:1043A000EC1C3FB7F8948091730390917403A09133
:1043B0007503B091760326B5A89B05C02F3F19F071
:1043C0000196A11DB11D3FBFBA2FA92F982F882795
:1043D000820F911DA11DB11D880F991FAA1FBB1F20
:1043E000880F991FAA1FBB1F880F991FAA1FBB1FE9
:1043F00068EE862E63E0962EA12CB12C3FB7F89480
:10440000409173035091740360917503709176032A
:1044100026B5A89B06C02F3F21F04F5F5F4F6F4F1F
:104420007F4F3FBF762F652F542F4427420F511DDA
:10443000611D711D440F551F661F771F440F551FC7
:10444000661F771F440F551F661F771F481B590BA8
:104450006A0B7B0B483E53406105710578F2E1E041
:104460008E1A9108A108B10888519C4FAF4FBF4FD9
:1044700081149104A104B10409F0C0CFAA89BB89B9
:10448000EF2D1D92EA95E9F7BE016F5F7F4F8AE23B
:1044900093E00E94921C10925F03109260033FB75A
:1044A000F8948091730390917403A0917503B09177
:1044B000760326B5A89B05C02F3F19F00196A11DD4
:1044C000B11D3FBFBA2FA92F982F8827820F911DAA
:1044D000A11DB11D880F991FAA1FBB1F880F991F0F
:1044E000AA1FBB1F880F991FAA1FBB1F68EC862E2F
:1044F000912CA12CB12C3FB7F894409173035091AB
:104500007403609175037091760326B5A89B06C06D
:104510002F3F21F04F5F5F4F6F4F7F4F3FBF762F91
:10452000652F542F4427420F511D611D711D440FEB
:10453000551F661F771F440F551F661F771F440FB7
:10454000551F661F771F481B590B6A0B7B0B483E94
:1045500053406105710578F2F1E08F1A9108A108C6
:10456000B10888519C4FAF4FBF4F81149104A104F3
:10457000B10409F0C0CF0150110909F0DECE80E48A
:1045800093E090933B0380933A03E2E4F3E01491C9
:10459000E3E4F3E0E49126E0822E810EFF24F3941D
:1045A000FE0E86E0881508F011E0A12CEE24E394BD
:1045B000DE011A96BD8BAC8B772473949A2C96E00F
:1045C000B92E092D9E012F5F3F4F46E56FE373E043
:1045D0008AE393E00E947514BD86EE867C86E1E056
:1045E000F0E0EC0FFD1FFB87EA87E0912E03F091CE
:1045F0002F039E01265F3F4F41E06FE08AE293E088
:1046000009959394B394B814E0F2E394A10EEF14D7
:10461000A8F2D0923B03C0923A0384EF9FE09093BC
:104620002D0380932C0349E052E066E082E00E9473
:10463000EC1CDE015296BF8BAE8B1EE7212E312C77
:1046400000E1C02ED12C8AE6882E912CB6E0EB2E0C
:10465000F12C10923A0210923B0210923C021092FE
:104660003D02E0911803F091190320810180F2814D
:10467000E02DF8948181322F3095832381837894C3
:104680009CE702C09150E9F080818223D9F3F8942D
:104690008281832382838181282B218378948CEBF0
:1046A00093E00197F1F7F89481813823318388E80A
:1046B00090E00197F1F78081789480E393E001978F
:1046C000F1F7A0911803B091190328E030E051E010
:1046D0001DC01C911196ED91FC911297F894928156
:1046E000412F4095942392839181912B9183C60110
:1046F0000197F1F79281812F892B82837894C401ED
:104700000197F1F7550F2150310901F1852F8C7C6C
:1047100001F71C911196ED91FC911297F8949281FA
:10472000412F4095942392839181912B9183C101D4
:104730000197F1F79281812F892B82837894C701A9
:104740000197F1F7550F2150310901F7F8941196AF
:10475000ED91FC91129781819C91909589238183A1
:104760001196ED91FC91129782819C9190958923ED
:104770008283789460911203A0911803B091190379
:1047800028E030E051E01DC07C911196ED91FC9144
:104790001297F8949281472F4095942392839181A8
:1047A000972B9183C6010197F1F79281872F892B6F
:1047B00082837894C4010197F1F7550F2150310994
:1047C00001F1852F847401F77C911196ED91FC9194
:1047D0001297F8949281472F409594239283918168
:1047E000972B9183C1010197F1F79281872F892B34
:1047F00082837894C7010197F1F7550F2150310951
:1048000001F7611114C0F8941196ED91FC91129783
:1048100081819C919095892381831196ED91FC91E2
:10482000129782819C9190958923828378948091BC
:104830001403811181C6E0911803F09119031386C6
:1048400015861486128611861086178216821582A6
:1048500014821382BE01665F7F4FCF010E94CE1982
:10486000882309F474C08A85E82FEF70F0E0E75AD6
:10487000F44E9491E82FE295EF70F0E0E759F44E92
:10488000E4919E278B858927E82FEF70F0E0E75AA7
:10489000F44E9491E82FE295EF70F0E0E759F44E72
:1048A000E4919E278C858927E82FEF70F0E0E75A86
:1048B000F44E9491E82FE295EF70F0E0E759F44E52
:1048C000E4919E278D858927E82FEF70F0E0E75A65
:1048D000F44E9491E82FE295EF70F0E0E759F44E32
:1048E000E4919E278E858927E82FEF70F0E0E75A44
:1048F000F44E9491E82FE295EF70F0E0E759F44E12
:10490000E4919E278F858927E82FEF70F0E0E75A22
:10491000F44E9491E82FE295EF70F0E0E759F44EF1
:10492000E4919E2788898927E82FEF70F0E0E75A05
:10493000F44E9491E82FE295EF70F0E0E759F44ED1
:10494000E491892F8E279989981709F47CC660E035
:1049500070E08EEF92EC6093360270933702809392
:1049600038029093390205E010E040E4B42EE3E50C
:10497000FBE19491EFEBFBE12491E8EAFBE1349158
:10498000332381F0911121C5E32FF0E0EE0FFF1FDB
:10499000E758F44EA591B4919FB7F8948C91822B6F
:1049A0008C939FBFB0927C0080917A00806480934A
:1049B0007A0080917A0086FDFCCF6091780080912A
:1049C000790070E0782B072E000C880B990B0E9461
:1049D00014386093320270933302809334029093C0
:1049E0003502B0927C0080917A00806480937A00D6
:1049F00080917A0086FDFCCF6091780080917900EB
:104A000070E0782B072E000C880B990B0E9414384D
:104A10009B01AC01609332027093330280933402A5
:104A200090933502E3E5FBE19491EFEBFBE1849198
:104A3000E8EAFBE164916623C9F09111DEC4E62F38
:104A4000F0E0EE0FFF1FE758F44EA591B4912FB799
:104A5000F8949C91809589238C932FBF20913202EA
:104A600030913302409134025091350260913A0204
:104A700070913B0280913C0290913D020E9434373C
:104A800060933A0270933B0280933C0290933D0204
:104A90009FB7F8944091730350917403609175032C
:104AA0007091760386B5A89B06C08F3F21F04F5FBB
:104AB0005F4F6F4F7F4F9FBF762F652F542F442737
:104AC000480F511D611D711D440F551F661F771F33
:104AD000440F551F661F771F440F551F661F771F12
:104AE00098E8492E93E1592E612C712C3FB7F89428
:104AF0008091730390917403A0917503B091760334
:104B000026B5A89B05C02F3F19F00196A11DB11D28
:104B10003FBFBA2FA92F982F8827820F911DA11D63
:104B2000B11D880F991FAA1FBB1F880F991FAA1FAD
:104B3000BB1F880F991FAA1FBB1F841B950BA60BB9
:104B4000B70B883E9340A105B10580F2F1E04F1A02
:104B500051086108710848515C4F6F4F7F4F4114F5
:104B600051046104710411F60150110909F0FFCEDE
:104B70002DEC3CEC4CEC5DE360913A0270913B0211
:104B800080913C0290913D020E94A03860933202D5
:104B9000709333028093340290933502E0911803AE
:104BA000F091190320810180F281E02DF894818138
:104BB000322F30958323818378949CE702C09150F3
:104BC000E9F080818223D9F3F89482818323828360
:104BD0008181282B218378948CEB93E00197F1F766
:104BE000F89481813823318388E890E00197F1F7C8
:104BF0008081789480E393E00197F1F7A091180306
:104C0000B091190328E030E051E01DC01C911196CD
:104C1000ED91FC911297F8949281412F4095942345
:104C200092839181912B9183C6010197F1F7928133
:104C3000812F892B82837894C4010197F1F7550F56
:104C40002150310901F1852F8C7C01F71C911196BF
:104C5000ED91FC911297F8949281412F4095942305
:104C600092839181912B9183C1010197F1F79281F8
:104C7000812F892B82837894C7010197F1F7550F13
:104C80002150310901F7F8941196ED91FC9112979A
:104C900081819C919095892381831196ED91FC915E
:104CA000129782819C919095892382837894609158
:104CB0001203A0911803B091190328E030E051E0ED
:104CC0001DC07C911196ED91FC911297F894928100
:104CD000472F4095942392839181972B9183C6010E
:104CE0000197F1F79281872F892B82837894C401F1
:104CF0000197F1F7550F21503109F9F0852F847490
:104D000001F77C911196ED91FC911297F8948281B4
:104D1000472F4095842382838181872B8183C10122
:104D20000197F1F78281872B82837894C7010197DD
:104D3000F1F7550F2150310909F7611114C0F894AA
:104D40001196ED91FC91129781819C919095892308
:104D500081831196ED91FC91129782819C9190959F
:104D60008923828378948091140381115EC3E0913A
:104D70001803F0911903138615861486128611867E
:104D8000108617821682158214821382BE01665F16
:104D90007F4FCF010E94CE19882309F476C08A85FF
:104DA000E82FEF70F0E0E75AF44E9491E82FE29587
:104DB000EF70F0E0E759F44EE4919E278B85892748
:104DC000E82FEF70F0E0E75AF44E9491E82FE29567
:104DD000EF70F0E0E759F44EE4919E278C85892727
:104DE000E82FEF70F0E0E75AF44E9491E82FE29547
:104DF000EF70F0E0E759F44EE491892F8E279D85FE
:104E00008927E82FEF70F0E0E75AF44E94918295ED
:104E10008F70E82FF0E0E759F44EE491E9278E8592
:104E20008E27E82FEF70F0E0E75AF44E9491E82FC8
:104E3000E295EF70F0E0E759F44EE4919E278F85FC
:104E40008927E82FEF70F0E0E75AF44E9491E82FAD
:104E5000E295EF70F0E0E759F44EE4919E278889DF
:104E60008927E82FEF70F0E0E75AF44E9491E82F8D
:104E7000E295EF70F0E0E759F44EE491892F8E2728
:104E80009989981711F40C94BC2E60E070E08EEFB5
:104E900092EC2091360230913702409138025091C5
:104EA00039020E94343720E030E040E05FE30E94A6
:104EB000A03860933E0270933F028093400290932B
:104EC000410220E030E048EC51E40E9433372CE707
:104ED00031ED4EE95CE30E94A03820E030E040E88C
:104EE0005FE30E9434379B01AC0164E771ED85E319
:104EF00093E40E94A037688F798F8A8F9B8F60938D
:104F0000460270934702809348029093490220E042
:104F100030E040E45BE360913202709133028091B3
:104F20003402909135020E94A0382B013C0160911F
:104F3000000170910101072E000C880B990B0E9453
:104F40001438A30192010E94A0386C8F7D8F8E8F40
:104F50009F8FA301920160E070E080E490E40E94E2
:104F600033379B01AC016C8D7D8D8E8D9F8D0E94A2
:104F7000A03720E030E040E252E40E943337288D31
:104F8000398D4A8D5B8D0E94A038609342027093E8
:104F90004302809344029093450288E0AA89BB892A
:104FA0001D928A95E9F7BE016F5F7F4F8AE293E019
:104FB0000E94921C10925F0310926003EEE4F5E1F0
:104FC000F0933B03E0933A0384EF9FE090932D032B
:104FD00080932C0346E152E060E080E00E94EC1CEC
:104FE0000AE412E022E043E064E771ED85E393E434
:104FF0000E944034A4EFBFE0B0932D03A0932C0394
:10500000A80160E084E00E94EC1CE4EFFFE0F09374
:105010002D03E0932C034AE152E060E08BE00E9414
:10502000EC1C84EF9FE090932D0380932C0340E2CF
:1050300052E062E080E00E94EC1C609146027091B8
:105040004702809148029091490221E043E00E948A
:105050004034A4EFBFE0B0932D03A0932C03A8012C
:1050600062E085E00E94EC1CE4EFFFE0F0932D038A
:10507000E0932C034AE152E062E08BE00E94EC1CDA
:1050800084EF9FE090932D0380932C0345E252E040
:1050900064E080E00E94EC1C609142027091430247
:1050A000809144029091450226E046E00E944034FF
:1050B000A4EFBFE0B0932D03A0932C03A80164E0FC
:1050C00083E00E94EC1CE4EFFFE0F0932D03E093FB
:1050D0002C0348E252E066E080E00E94EC1C609104
:1050E0003E0270913F02809140029091410221E086
:1050F00042E00E94403484EF9FE090932D03809320
:105100002C03A80166E086E00E94EC1CA3EABFE045
:10511000B0932D03A0932C034EE252E066E08AE0A8
:105120000E94EC1CE0E0F0E0309709F492CA099587
:105130008DCA9B3311F40C940B21923411F00C9412
:1051400063200C940B218091B0008F7D8093B00080
:105150000C9402208091B0008F778093B0000C9463
:105160000220823081F0833011F00C94022084B54B
:105170008F7D84BD0C940220809180008F77809376
:1051800080000C94022084B58F7784BD0C9402209B
:105190001D3008F4AFC010931303809116038F5F86
:1051A000809316030C940B21E0911803F0911903DE
:1051B00020810180F281E02DF8949181822F8095E9
:1051C0009823918378949CE73081322309F09CC026
:1051D0009150D1F7009118031091190365E5C801AA
:1051E0000E94831DCE0101961C01D1016D911D010C
:1051F00028E030E091E0862F892309F4A0C0F8016F
:1052000080810180F281E02DF8944281582F5095E1
:10521000452342834181482B4183D7011197F1F700
:105220004281842B82837894F3013197F1F7990FAF
:105230002150310901F7F894F801A181B28111964A
:105240008C91119790819095892311968C93A181CF
:10525000B28112968C911297908190958923129623
:105260008C9378942414350409F0BFCF64EB8091BB
:105270001803909119030E94831DE0911803F09187
:10528000190390810180F281E02DF8948181892BAE
:1052900081832281892F809528232283D60111972B
:1052A000F1F7218182238183D7011197F1F7808162
:1052B00098237894E6E6F0E03197F1F7E09118034F
:1052C000F091190330810180F281E02DF894218161
:1052D000832F80952823218378942CE740814323D2
:1052E00009F052C02150D1F7992309F468C02981EF
:1052F0000C94E9208CE080931303809116038F5F58
:10530000809316030C940B21F89492819823928336
:105310009181922B91837894ACEBB3E01197F1F7E4
:10532000F89491818923818388E890E00197F1F7CF
:105330008081789480E393E00197F1F74BCFD80117
:105340008C911196ED91FC911297F8944281582F0F
:105350005095452342834181482B4183D4011197C5
:10536000F1F74281842B82837894F5013197F1F72C
:105370005ECF8981803109F4BDCFCE0101960E94B4
:10538000BA1699810C94FA20F8942281282322835A
:105390002181232B21837894ACEBB3E01197F1F7B3
:1053A000F894218182238183A8E8B0E01197F1F776
:1053B00080817894E0E3F3E03197F1F795CF81E0D5
:1053C0008093120329810C94E920943011F40C94F9
:1053D000953210F40C945832983011F40C94BD327C
:1053E000993011F40C94B632953009F0CDCA809101
:1053F00080008F7D80938000C7CA943011F40C9494
:10540000AA3210F40C946432983011F40C94A33244
:10541000993011F40C949C32953009F010CB909196
:1054200080009F7D909380000ACBE0911303E950A8
:10543000E33010F00C946F32F0E0EE0FFF1FEE5FE0
:10544000FE4F0081118180911503882331F08091F6
:105450001203882311F40C942A33012E000C220B22
:10546000330B4FB7F8948091730390917403A0911C
:105470007503B0917603E6B5A89B05C0EF3F19F020
:105480000196A11DB11D4FBF4427582F692F7A2FB8
:105490004E0F511D611D711D440F551F661F771F53
:1054A000440F551F661F771F440F551F661F771F38
:1054B000011511052105310509F459CCFFB7F89400
:1054C0008091730390917403A0917503B09176035A
:1054D000E6B5A89B05C0EF3F19F00196A11DB11DCF
:1054E000FFBFBA2FA92F982F88278E0F911DA11DBE
:1054F000B11D880F991FAA1FBB1F880F991FAA1FD4
:10550000BB1F880F991FAA1FBB1F841B950BA60BDF
:10551000B70B883E9340A105B10580F201501109F7
:105520002109310948515C4F6F4F7F4F011511051B
:105530002105310519F61BCCE0911303E950E33046
:1055400010F00C947332F0E0EE0FFF1FEE5FFE4F91
:105550000081118180911503882331F0809112031D
:10556000882311F40C94DD32012E000C220B330B36
:105570004FB7F8948091730390917403A0917503D1
:10558000B0917603E6B5A89B05C0EF3F19F00196F0
:10559000A11DB11D4FBF4427582F692F7A2F4E0FE1
:1055A000511D611D711D440F551F661F771F440F4C
:1055B000551F661F771F440F551F661F771F011564
:1055C00011052105310509F436C9FFB7F89480911A
:1055D000730390917403A0917503B0917603E6B5BF
:1055E000A89B05C0EF3F19F00196A11DB11DFFBF9B
:1055F000BA2FA92F982F88278E0F911DA11DB11D9D
:10560000880F991FAA1FBB1F880F991FAA1FBB1FB6
:10561000880F991FAA1FBB1F841B950BA60BB70BE6
:10562000883E9340A105B10580F20150110921097E
:10563000310948515C4F6F4F7F4F0115110521050E
:10564000310519F6F8C8E0911803F091190320818B
:105650000180F281E02DF8948181322F30958323EF
:10566000818378949CE703C0915009F470C98081CC
:105670008223D1F3F8948281832382838181822BD8
:10568000818378948CEB93E00197F1F7F894818112
:105690003823318388E890E00197F1F7808178948E
:1056A000E0E3F3E03197F1F7282309F050C9A09126
:1056B0001803B091190348E050E021E01CC01C9190
:1056C0001196ED91FC911297F8948281312F3095CB
:1056D000832382838181812B8183C6010197F1F726
:1056E0008281812B82837894C4010197F1F7220F84
:1056F0004150510901F1822F857509F71C911196CE
:10570000ED91FC911297F8949281312F309593236B
:1057100092839181912B9183C1010197F1F792813D
:10572000812F892B82837894C7010197F1F7220F8B
:105730004150510901F7F8941196ED91FC9112979F
:1057400081819C919095892381831196ED91FC91A3
:10575000129782819C919095892382837894AE01DF
:10576000465F5F4FFA011191AF0128E030E071E030
:105770001DC00C911196ED91FC911297F8949281B5
:10578000602F6095962392839181902B9183C6011F
:105790000197F1F79281802F892B82837894C4013D
:1057A0000197F1F7770F2150310901F1812F8723FC
:1057B00001F70C911196ED91FC911297F89492815A
:1057C000602F6095962392839181902B9183C101E4
:1057D0000197F1F79281802F892B82837894C701FA
:1057E0000197F1F7770F2150310901F7F8941196DD
:1057F000ED91FC91129791818C9180958923818301
:105800001196ED91FC91129792818C91809589234C
:10581000828378948E899F894817590709F0A2CF0F
:10582000E0911803F091190348E050E021E026C010
:105830001081A181B281F89412969C911297312F18
:105840003095932312969C93129711969C911197E1
:10585000912B11969C931197C6010197F1F712961F
:105860009C911297812F892B12968C937894C40166
:105870000197F1F7220F4150510949F1822F8E7B98
:10588000B9F61081A181B281F89412969C91129779
:10589000312F3095932312969C93129711969C91D9
:1058A0001197912B11969C931197C1010197F1F7D4
:1058B00012969C911297812F892B12968C93789433
:1058C000C7010197F1F7220F41505109B9F6F89439
:1058D000A181B28111968C91119790819095892325
:1058E00011968C93A181B28112968C91129790811E
:1058F0009095892312968C937894DE01119642E05C
:1059000050E026E630E03D01E0911803F0911903E4
:10591000608181819281F894DC0111967C911197CC
:10592000762B11967C93119712961C911297762FD5
:105930007095172312961C93DA011197F1F7DC0189
:1059400011961C911197712311967C93D601119792
:10595000F1F7DC017C917894C9010197F1F7672395
:1059600081E009F480E0908161817281F894DB012B
:1059700011961C911197192B11961C931197129641
:105980000C911297192F1095012312960C93DA019E
:105990001197F1F7DB0111960C91119710231196D5
:1059A0001C93D6011197F1F7DB011C917894D90172
:1059B0001197F1F7912309F08260908161817281E2
:1059C000F894DB0111961C911197192B11961C93D9
:1059D000119712960C911297192F10950123129678
:1059E0000C93DA011197F1F7DB0111960C911197E5
:1059F000102311961C93D6011197F1F7DB011C912E
:105A00007894D9011197F1F7912309F0846090817E
:105A100061817281F894DB0111961C911197192B09
:105A200011961C93119712960C911297192F10959D
:105A3000012312960C93DA011197F1F7DB0111960D
:105A40000C911197102311961C93D6011197F1F721
:105A5000DB011C917894D9011197F1F7912309F09A
:105A60008860908161817281F894DB0111961C91AC
:105A70001197192B11961C93119712960C9112974E
:105A8000192F1095012312960C93DA011197F1F753
:105A9000DB0111960C911197102311961C93D601DE
:105AA0001197F1F7DB011C917894D9011197F1F767
:105AB000912309F08061908161817281F894DB010A
:105AC00011961C911197192B11961C9311971296F0
:105AD0000C911297192F1095012312960C93DA014D
